:400000000080002011000000010400000104000008B5044B1A6803F53F5302331A6000F0F7F900BFFA46004010B5054C237833B9044B13B10448AFF300800123237010BD7D
:400040006881FF1F00000000E4230000084B10B51BB108490848AFF300800848036803B910BD074B002BFBD0BDE81040184700BF000000006C81FF1FE4230000C880FF1FB4
:400080000000000008B500F0F3FE00284BD0264800F006FFC0B2254B1870012843D900F0F3FE0028FBD0204B1B78013B062B3AD8DFE803F0040D161F283931001C484F2394
:4000C000037031234370022100F0AAFE08BD18484F23037032234370022100F0A1FE08BD13484F23037033234370022100F098FE08BD0F484F23037034234370022100F032
:400100008FFE08BD0A484F23037035234370032100F086FE08BD06484F23037036234370022100F07DFE08BD9086FF1F1087FF1FFC8AFF1F08B50021084600F035FC00F072
:400140006BFC0028FBD000F01FFE08BD08B562B6FFF7F0FF002000F005FB02F095F802F0A7F801F06BFF01F0F3FF02F03DF802F077F802F03FF802F079F8002300E00133F0
:400180000F4A9342FBDD002300E001330C4A9342FBDD01F085FE0B4801F062FE01F010FF01F098FF084801F0E7FF084801F05AFF01F04AFF01F0D2FFFF2000F0D3FAFEE7E1
:4001C000FEFFFF00850000005C8F0200C2F52800FEE700BFF0B40022174611E050F82760F3B226F0FF0608E001EB420511F812406D78A5550132013BDBB2002BF4D10137F2
:40020000202FEBD9F0BC7047064B1B78DBB203F00701054A11701B09013213704422034B1A707047CF0100496E5800407658004008B50A46002102F0CCF808BD38B5062252
:400240001E4B1A705222A3F580731A701C4B1B78DBB21C4A13704FF4E2621B4B1A8041F25122023B1A80002419250CE0174B1B7803F0010343EA440404F003044FF4F07041
:4002800002F026F8013D0DB1032CEFD115B90320FFF79EFF0E4A4FF4807313800723137000230C490B704820023108701370053213700222084B1A7038BD00BF0043004076
:4002C0000F010049A1460040224200402542004004400040064000400140004008B502F06DF808BD38B572B6324A137843F00403137000240CE0304D630019194A00114633
:400300002A44084691882858FFF792FF0134E4B2072CF0D929494FF09040FFF75BFF04212748FFF785FF04212648FFF781FF04212548FFF77DFF254A137843F00203137079
:400340001032137843F002031370214C237843F040032370A2F58632513A137843F01003137008221B491C48FFF7B8FF0A221B491B48FFF7B3FF08221A491B48FFF7AEFFE9
:4003800008221A491A48FFF7A9FF1A4A137843F008031370184D61232B70FFF74FFFC1232B70FFF731FF0E2221461448FFF796FF38BD00BFE8460040E8230000840000481C
:4003C00000760040087600401076004003500140A0430040FC0500480251004004060048F0510040100600481251004018060048325100402243004000480040B0430040D3
:4004000008B501F0AFFF03680C2B00D1FEE7FEE708B5104E104D16E029686B68AC68002204E051F8040B43F8040B0432A242F8D1E868002203E0002143F8041B04328242E8
:40044000F9D11035013E002EE6D101F091FFFFF77DFEFEE701000000B025000008B5114A114B1A60114A136843F40073136000230AE0032B03D80E4A52F8231000E00D499A
:400480000D4A42F8231001332F2BF2D90B4B1A780B4B1A70084A0B4B1A60FFF723FF00F013F808BD0004FA050CED00E014ED00E000000000010400000080FF1FBC7600408B
:4004C000C080FF1F08ED00E00B4A7F2313708021517007E0DA0002F1804202F5F042013BDBB21370002BF5D1DB0003F1804303F5F04300221A707047CC80FF1F172815D85B
:4005000031B103010A495A5C42F020025A5405E0030107495A5C02F0DF025A540001044A835C43F00103835400207047012070471070004017280BD80001064BC25C02F02B
:40054000FE02C254C25C02F0DF02C25400207047012070471070004017280BD80001064A835C03F0F103490001F00E011943815400207047012070471070004041F6FF7324
:40058000994201D14FF4005141F6FF739A4201D14FF40052172808D8C00000F1804000F5EC408180C280002070470120704700BF172805D8034B03EB0010417200207047BA
:4005C000012070471070004017281BD810B4C00000F1804404F5EC44D201D2B201F07F01114321709DF804201201D2B203F00F03134363709DF8083003F00F03A37000209F
:40060000E07001E00120704710BC704710B501F067FE0A4B5B78182B0BD9084A1478013B5370E30003F1804303F5F0431B78137000E0FF2401F058FE204610BDCC80FF1F25
:4006400010F0800F0CD111F4704F0BD1C00000F1804000F5F04001808270C37000207047012070470120704710F0800F08D1C00000F1804000F5F0408180C2800020704793
:400680000120704701BE704708B5034B1B7A00FB03F001F01DFE08BDD480FF1F70B504460E46074B1D681F2802D90020FFF7EAFF04F01F04103455F8240045F8246070BDA6
:4006C00008ED00E038B504460D46072902D90020FFF7D8FF1F2C02D90020FFF7D3FF04F01F0000F1604000F564406D01EDB2057038BD00BF134B1B78DBB20360124A12785B
:4007000043EA02230360114A127843EA024303600F4A127843EA026303600E4B1B78DBB243600D4A127843EA022343600B4A127843EA024343600A4A127843EA0263436079
:40074000704700BF0301004904010049EC4600400201004901010049000100490501004906010049014B1870704700BF74640040F8B501F0B5FD0546484A137843F0010325
:4007800013701032137843F0010313700127444B1F700226943B1E7002F5E2521B32137803F07F0313700020FFF76EFF3D4C237803F0F90323703C4A137803F0DF031370D7
:4007C00023783B4323703846FFF75EFF2820FFF75BFF364B1A7802F07F021A701A7802F0BF021A702378334323703046FFF74CFF237843F00403237000232D4A13700132F2
:40080000137004E0FF212B4AD15401339BB2082BF8D9284601F068FD07211720FFF752FF25491720FFF73AFF07211820FFF74AFF22491820FFF732FF07210320FFF742FFE9
:400840001F490320FFF72AFF07210020FFF73AFF1C490020FFF722FF07210120FFF732FF19490120FFF71AFF07210220FFF72AFF16490220FFF712FF00211620FFF722FF5A
:4008800013491620FFF70AFF06210C20FFF71AFF10490C20FFF702FFF8BD00BFA54300409D6000409443004012600040F851004084600040888BFF1F4D14000035120000A1
:4008C00049140000A9130000D91300000D14000055140000F914000008B5254B18700023244A1370244A1370244A1370244A1370244A1370244A1370244A1370244B4FF43B
:4009000000021A604FF080721A6008221A6001221A6002221A6004221A6007201D4A10704FF480021A6020221B4B1A7011B1012906D00BE0194A137803F0FE0313700AE096
:40094000164A137843F00103137004E0134A137843F0010313700322114B1A708022203B1A70012001F0B4FC04220E4B1A7008BD3F8CFF1F3E8CFF1FB08BFF1FB18BFF1FA6
:40098000B28BFF1F428CFF1FB38BFF1FAF8BFF1F00E100E09E6000409C60004009600040286000401260004038B504460D46064B1B7823B9FFF7DCFE0122034B1A7029465A
:4009C0002046FFF789FF38BD8481FF1F00230A4A13700A4A13700A4A13700A4A13700A4A13700A4A13700A4A13700322094B1A708022203B1A7070473E8CFF1FB08BFF1F75
:400A0000B18BFF1FB28BFF1F428CFF1FB38BFF1FAF8BFF1F28600040014B1878704700BFB18BFF1F00EB40008300024A13445878704700BFD08BFF1F431EDBB2072B0BD8DA
:400A4000064B00011A18185C00F00F00537843EA0020023880B2704700207047FC5F004010B5044600EB40039800184B1844037913F0800F03D00A0C4FF4804302E00B0C48
:400A80004FF48042022C0AD0032C0FD0012C13D10021084601F04EFA0D4B18550CE00021084601F029FA0A4B185505E00021084601F004FA064B1855631EDBB2072B03D850
:400AC000FFF7A4FD034B185510BD00BFD08BFF1F7C8BFF1F888BFF1F431EDBB2072B6FD82DE9F04104460E46154600EB40029300344A1344DB889BB2C3F500739D4209D971
:400B000000EB400293002F4A1344DD88ADB2C5F50075ADB204EB440293002A4A1344DB7843EA15232849220188188B54EBB24370264B1B5DFF2B03D131462046FFF790FFDC
:400B400004EB440293001F4A134400225A705EB355B31F4F385DFFF7EDFCDFF870801123FE22294618F80400FFF76AFD22010832184D2A4492B2B1B218F80400FFF774FDB9
:400B800018F80410385DFFF713FD0121385DFFF7B5FC24012B5D43F002032B552B5D03F0FD032B55BDE8F08104EB44029300054A13445A79D2B22401074B1A55BDE8F081E1
:400BC000704700BFD08BFF1FFC5F0040888BFF1F7C8BFF1F70600040FE5F00402DE9F843002944D0044615460F46002841D0082841D8FFF721FFA84203D22046FFF71CFF12
:400C000005461F4B1B5DFF2B03D139462046FFF727FFDFF8748018F80400FFF78BFCDFF860901223FE22294619F80400FFF708FD21010831134E314489B2BAB219F80400A4
:400C4000FFF712FD19F8041018F80400FFF7B0FC012118F80400FFF751FC2401335D43F002033355335D03F0FD03335504E0002502E0002500E000252846BDE8F88300BF39
:400C8000888BFF1F706000407C8BFF1F431EDBB2072B0BD8420002449300054A134400225A705A79D2B20001024B1A54704700BFD08BFF1FFE5F004010B4FF2400230EE087
:400CC000094AD25C02EB42029100084A11448A7AD2B2824201D11C4602230133DBB2012BEED9204610BC70479C8BFF1FD08BFF1F10B5204C2079FFF7DFFF237813F0800F3F
:400D00000ED06378DBB2212B2FD11B4B07221A80C0EBC000194A1044586000F0F9FA10BD144B5B78DBB2202B02D0222B10D01EE0114A07231380C0EBC00310490B44536086
:400D40000F4A135C43F00103135400F009FB10BD084B9B780B4A22F81030094A135C43F00203135400F092F910BD002010BD002010BD00BF00600040C08BFF1FE480FF1F6A
:400D8000A48BFF1FA88BFF1F10B500241F4B1C701F4B1C705C700AE01E4B185DC0B2431EDBB2072B01D8FFF771FF0134E4B2012CF2D9194B1B7813F0FF0F1AD0154B1B78B3
:400DC00013F0FF0F17D0154B1B7813F0FF0F14D0114B1B78DBB2082B11D80E4B1B78DBB2082B0ED80D4B1B78DBB2082B0BD8002010BD012010BD012010BD012010BD012083
:400E000010BD012010BD012010BD00BF8581FF1FA48BFF1F988BFF1F948BFF1F9C8BFF1F70B506460D460F4B1B780F4AD45CE4B204EB440293000D4A13441B899BB28B4212
:400E400009D204EB44029300084A13441D89ADB20020FFF717FC2A4631462046FFF73CFE70BD00BF8581FF1F948BFF1FD08BFF1F08B5034B1B78034AD05CFFF7D3FD08BD13
:400E80008581FF1F988BFF1F08B5034B1B78034AD05CFFF7C7FD08BD8581FF1F948BFF1F38B50D4B1B780D4AD45CE4B204EB440293000B4A13441A8992B201462046FFF7E3
:400EC0008DFE05462046FFF7ADFD0128FAD02046FFF7DCFE284638BD8581FF1F988BFF1FD08BFF1FC37803F0030390F9020000280FDA032B06D002F001030B48C15442F048
:400F000001020EE0C2F380030848C15442F0040207E0032B05D0C2F340030548C15442F002021046704700BF948BFF1F9C8BFF1F988BFF1F1D4B19781D4A13889BB20B444B
:400F40009BB2138000220FE01A494B681B78DBB2194883544B6801334B600132D2B20B889BB2013B9BB20B80124B1B889BB20BB1072AE9D90D4B1B78DBB2082B00D05AB153
:400F80000E490B7883F080030B700F210C4B197002210C4B197004E0022309490B7009490B70094B1A70014B1A707047AF8BFF1F3C8CFF1FC08BFF1F00600040B48BFF1F21
:400FC000AE8BFF1F3E8CFF1FCC8BFF1F0222074B1A708022064B1A700F22064B1A700023054A1370054A1370012070473E8CFF1FB48BFF1FAE8BFF1FAF8BFF1FCC8BFF1FAC
:4010000008B5FFF797FF08BD10B4194B197801F00F010239C9B2174A13889BB20B449BB21380002011E0144A5468144B1B5CDBB223705368013353600130C0B20139C9B29F
:4010400013889BB2013B9BB213800B4B1B889BB20BB10029E7D10A4B19700A4A137883F0800313700B22084B1A7010BC704700BF296000403C8CFF1FC08BFF1F006000404F
:40108000CC8BFF1FB48BFF1FAE8BFF1F0623064A1370064A13708022054B1A700022054B1A700120704700BF3E8CFF1FAE8BFF1FB48BFF1FCC8BFF1F064B9B6843B1054B80
:4010C0009A6810709A6804490988518000229A60704700BFC08BFF1F3C8CFF1F08B5134B1A78D2B21A701B78DBB213F0800F02D00F4A137008BD0220FFF7DEFF0D4B1B781C
:4011000003F06003202B05D0402B06D043B900F0E7FC06E001F0F6F803E000F08BFE00E0002010B90322024B1A7008BD28600040AE8BFF1F0060004008B5094B1978094ACA
:4011400013889BB20B449BB213800022064B1A700120FFF7B1FF0322044B1A7008BD00BFAF8BFF1F3C8CFF1F3E8CFF1FAE8BFF1F08B50B4B1B78DBB2042B06D0062B07D055
:40118000022B0BD1FFF7D8FF08BDFFF73DFF08BD0320FFF791FF0322024B1A7008BD00BF3E8CFF1FAE8BFF1F08B50022044B1A700120FFF781FF0322024B1A7008BD00BF66
:4011C0003E8CFF1FAE8BFF1F08B50B4B1B7813F0FF0F07D0084A137843F0800307490B70002313700022064B1A700120FFF764FF0322044B1A7008BD428CFF1F0860004050
:401200003E8CFF1FAE8BFF1F08B5094B1B78DBB2042B06D0062B07D0022B07D1FFF7F0FE08BDFFF7C1FF08BDFFF7CEFF08BD00BF3E8CFF1F08B5284B1B78DBB213F0100F67
:4012400048D013F0800F0CD003F00F03012B16D1FFF744FF214B1B7813F0800F11D1012312E013F0400F03D0FFF7CEFF01230BE013F0200F07D0FFF77BFF012304E0002373
:4012800002E0002300E0002323B3134B1B7813F0800F1FD1124B1B78124A12781343124A13701278D2B2934214D10C4B1B78DBB2094A127812F0800F07D1084B1B78DBB2DA
:4012C000054A1370137803F00F03044A1278D2B29342EAD108BD00BF28600040AE8BFF1FB48BFF1FCC8BFF1F296000400022064B1A80064B9B682BB1044A916800230B7040
:4013000092685380704700BF3C8CFF1FC08BFF1F08B50F4B1B889BB213B9FFF757FE15E002220C4B1A7000220B4B1A70FFF7DEFF0A4AD179937943EA0123054A128892B206
:40134000934201D2024A1380FFF7F4FD012008BDC08BFF1F3E8CFF1FB48BFF1F0060004008B504220B4B1A7080220B4B1A70FFF7BDFF0A4AD179937943EA0123084A1288ED
:4013800092B2934201D2064A13800B22054B1A70012008BD3E8CFF1FB48BFF1F00600040C08BFF1FAE8BFF1F0122094B1A700F3B9B7C084B1B7B03F00303934204D0054A90
:4013C000D37B83F08003D3730122024B5A7370470B600040D08BFF1F02220A4B1A700F3B93F82230084B1B7E03F00303012B04D0054AD37E83F08003D3760122024B5A761D
:40140000704700BF0B600040D08BFF1F04220C4B1A700F3B93F832300A4B93F8243003F00303012B06D0074A92F8273083F0800382F827300122034B83F82520704700BF05
:401440000B600040D08BFF1F704700BF08B5FFF7BDFA08BD70B4234B1C78E4B201233DE014F0010F37D01A4619011F48084481784078014011F0010F17D003EB4305A80096
:401480001A4D2844007910F0800F0ED0164D1E01A85D00F0FE00A85503EB4305A800134D28444579EDB21248855511F0020F0FD002EB4205A8000D4D2844007910F0800F2B
:4014C00006D102EB4205A800084D2844002545701201084881540133DBB26408002CBFD170BC70479F60004070600040D08BFF1FFE5F00407260004008B500F0A7FC08BD0E
:4015000070B588B0054603AC174E0FCE0FC43368237035B322232B7003236B7001A8FFF7E9F8002402231AE008AA224412F81C2C08A901EB121111F8141CE954581C002150
:401540002954981C02F00F0208AE324412F8142C2A54DA1CA9540134E4B20433DBB2212BE2D908B070BD00BF1824000030B4012341E0194623481A0184180C2585541F22E5
:40158000627003EB430082001F480244527912F0FF0F13D003EB430082001B480244127912F0800F04D01801184A024495700AE01801164A02440820907004E01801134AFE
:4015C0000244802090704800084482000E480244D488E4B208010B4901448C71D088C0F30720C871D088C0B20871D288C2F307224A710133DBB2082BBBD9FF22044B1A709F
:4016000030BC704770600040D08BFF1FFC5F00400A600040074B1A78074B03EBC2035B681A7C824204D9C0001030184440687047002070473F8CFF1F2C240000F8B5404B53
:401640001B7813F0FF0F79D03D4B18780138C0B2FFF7E0FF047AC2683A4B1878C0B200236AE01178884264D13749095CC9B25578A9425ED1917801F07F01D67806F00306B3
:40168000DFF8C8E04D000D44AF000EEB07054FF0000C85F803C092F802C085F804C092F803C00EF807C097882F8192F90250002D0DDA012E01D1072700E00D274E000E4484
:4016C000B500224E35446F7101266E700CE0012E01D1052700E009274E000E44B5001B4E35446F7100266E70DFF868E00F010EEB07060125B57001FA05F529448D00134958
:4017000029440D89C5F307250EF807500D89EDB27570CE88F6B20E4D3D44AE71CE88C6F30726EE71CE88F6B22E71C988C1F30721697108320133DBB2A34292D3F8BD00BF5A
:40174000B18BFF1FB28BFF1FBC8BFF1FD08BFF1F70600040FC5F0040034B1A78034B03EBC2035868704700BF3F8CFF1F2C24000008B5084B18780138C0B2FFF74BFF30B16F
:4017800042681279023200EBC203586808BD002008BD00BFB18BFF1F2DE9F047002310E0724D5900CA189600AC190022AA55A270E2702281A272627034462C4462710133D9
:4017C000DBB2082BECD940B90AE000226849CA546849CA540133DBB200E00023012BF4D9654B1B7813F0FF0F00F0BD80624B18780138C0B2FFF70EFF80464368DB7913F0D0
:40180000400F05D05D4A137843F00103137004E05A4A137803F0FE03137098F808704FF0000A01266FE0D8F80C50002467E0AB7803F07F039E425FD1314606EB46008300D7
:401840004A4803441B899BB2A888834206D206EB460E4FEA8E03454A134418812B784448C35CDBB26878834246D195F802C0DFF8FCE04B000B4498000EEB000383F804C03D
:40188000EB780EF80030EB7803F0030395F90200002813DA012B02D14FF0070901E04FF00D09DFF8C8E04B0003EB010C4FEA8C00704480F805900121417012E0012B02D1FB
:4018C0004FF0050901E04FF00909DFF8A0E04B0003EB010C4FEA8C00704480F8059000214170AB790A2B01D0022B05D1524631462846FFF7F7FA824608350134E4B2BC4215
:4019000095D30136F6B2082E8DD9D8F80C0000220CE0837803F07F0310F8084B03EB43039900124B19448C720132D2B2BA42F0D3FFF71EFF124B1860002301210FE00B4DA0
:401940004A00501884002C44E380228992B213449BB203F0010213449BB20131C9B20829EDD9FFF703FEBDE8F08700BFD08BFF1FBC8BFF1FAC8BFF1FB18BFF1FB38BFF1FD2
:40198000B88BFF1F08B5154B1B7903F07F035A1ED2B2072A20D8590019448A0010490A44917841F0010191700021D170517841F002015170127912F0800F05D01B01094AD7
:4019C0001A448D23937004E01B01064A1A4489239370FFF75BFB08BD002008BD00600040D08BFF1FFC5F0040274B1B7903F07F035A1ED2B2072A44D810B5590019448A0006
:401A000022490A44917801F0FE0191700021D1701F4C1801215C01F07F012154517801F0FD015170127912F0800F13D003EB43018A0016490A445278D2B2012A04D1224613
:401A400002440C23937019E01B01114A1A440D23937013E003EB43018A000C490A445278D2B2012A05D11B01094A1A440823937004E01B01064A1A4409239370FFF706FB7D
:401A800010BD0020704700BF00600040D08BFF1FFC5F004010B50E4B1C79E4B20D4B18780138C0B2FFF7B6FD43681B799C4201D9022C0AD8084A135DDBB208490B55044B34
:401AC0009B78DBB21355012010BD002010BD00BF00600040B18BFF1FBC8BFF1FAC8BFF1F10B59C4B1B78DBB200219B4A118013F0800F00F0AD80974A5278D2B20A2A00F229
:401B00007481DFE812F06900720172017201720172010B007201920072019A008D4BDB78DBB2012B09D1FFF717FE42688A4B5A6012221A80FFF7ECFB10BD864BDB78DBB2F7
:401B4000022B13D1834B9878FFF764FD002800F04E814268804B5A605A68D1785A68927842EA01221A80FFF7D3FB10BD794BDB78DBB2032B05D02CE00A7811440133DBB26D
:401B800001E000237549734A9278D2B2934203D20A7812F0FF0FEFD16E4B9B7813F0FF0F0BD06C4B9B78DBB26D4A127C934204D16C4C2046FFF7A4FC21460B7813F0FF0F6F
:401BC00000F017810B78644A13805160FFF7A0FB10BD00F097FB10BD13F0030317D0022B40F009815C490B805A4B1B7903F07F0303EB43039A005C4B1A449278D2B25B4B7F
:401C00001A7000225A704B60FFF782FB10BD524902230B80564B1A78D2B2544B1A7000225A704B60FFF774FB10BD4B4B01221A80504A5A60FFF76CFB10BD474A0123138036
:401C4000444B1B794C490B445360FFF761FB10BD404A5278013A0A2A00F2CF80DFE812F04C00CD009800CD000B00CD00CD00CD001300CD003000374B9B78DBB23F4A137090
:401C8000FFF704FA10BD334B9B7803F0FF041BB1601EC0B2FFF7BEFC04B110B9002C40F0AE80344B1B78DBB29C4206D0314B1C700120334B1870FFF76FFDFFF7E7F910BDE1
:401CC000FFF7E8FE002800F09C80224A1379DBB21279D2B22B490A702B4AD25CD2B22649CB5CDBB29A4204D00122254B1A70FFF7A5FCFFF7CBF910BD03F00303012B17D011
:401D00004BB1022B7FD1134B9B7813F0FF0F7CD1FFF76AFE10BD0F4B9B78DBB2012B76D1134A137803F0FD031370FFF7AFF910BD084B1B79DBB2012B6BD8064B98781B7922
:401D4000DBB21249CA5C22EA0002CA54FFF79EF910BD00BF00600040C08BFF1F9424000078250000448CFF1FD08BFF1F8881FF1FB38BFF1FB18BFF1FBC8BFF1F428CFF1F1D
:401D8000B08BFF1FB28BFF1FAC8BFF1F408CFF1F03F00303012B17D04BB1022B3BD1224B9B7813F0FF0F38D1FFF7ECFD10BD1E4B9B78DBB2012B32D11C4A137843F0020348
:401DC0001370FFF763F910BD174B1B79DBB2012B27D8154B98781B79DBB21549CA5C22EA0002CA54FFF752F910BD002010BD002010BD002010BD002010BD002010BD002083
:401E000010BD002010BD002010BD002010BD002010BD002010BD002010BD002010BD002010BD002010BD00BF00600040B38BFF1F408CFF1F044B1B7813F0800F01D0024B49
:401E40005B780020704700BF00600040024B1878C0F38010704700BF8F450040704700BF024B1B68C3F89400704700BF08ED00E04001C0B2014B1870704700BF15E400E0F9
:401E80004FF40012014B1A60704700BF00E100E04FF40012014B1A60704700BF80E100E008B5FFF7F5FF0448FFF7DAFF0620FFF7DFFFFFF7E5FF08BD5D1E0000F0B583B050
:401EC00016461F460B4C022525700023019300930A4601462846FEF777FB3A4631462078FEF74CFB29462078FEF736FB207803B0F0BD00BFFE80FF1FF0B583B016461F4674
:401F00000B4C012525700023019300930A4601462846FEF759FB3A4631462078FEF72EFB02212078FEF718FB207803B0F0BD00BFFF80FF1FF0B583B016461F460B4D00241E
:401F40002C700194009423460A4601462046FEF73BFB3A4631462878FEF710FB02212878FEF7FAFA287803B0F0BD00BF0081FF1F08B500F0B5F9044A137843F0100313706D
:401F800000F0B2F908BD00BF9264004008B5044A137843F001031370FFF7EAFF08BD00BF7164004008B500F09BF9044A137803F0EF03137000F098F908BD00BF9264004047
:401FC00008B5044A137803F0FE031370FFF7EAFF08BD00BF71640040034601280BD10F4A1278C2F3C10212B1022A02D005E0002004E0012002E0FE2000E00220022B0BD1DD
:40200000064B1B78C3F341132BB1022B01D000207047012070470220704700BF62640040054B1A7802F0F8021A701A7800F0070010431870704700BF8264004008B5012055
:40204000FFF7EEFF08BD00BF08B5054B1B7823B9FFF7F4FF0122024B1A70FFF797FF08BD8A81FF1F10B504460120FFF7B5FF28B12146034800F03CF9002010BD112010BDAB
:402080004064004008B500F02BF9044A137843F01003137000F028F908BD00BF9664004008B5044A137843F001031370FFF7EAFF08BD00BF7564004008B500F011F9044A29
:4020C000137803F0EF03137000F00EF908BD00BF9664004008B5044A137803F0FE031370FFF7EAFF08BD00BF75640040034601280BD10F4A1278C2F3C10212B1022A02D045
:4021000005E0002004E0012002E0FE2000E00220022B0BD1064B1B78C3F341132BB1022B01D000207047012070470220704700BF66640040054B1A7802F0F8021A701A7887
:4021400000F0070010431870704700BF8664004008B50120FFF7EEFF08BD00BF08B5054B1B7823B9FFF7F4FF0122024B1A70FFF797FF08BD8B81FF1F10B504460120FFF7A8
:40218000B5FF28B12146034800F0B2F8002010BD112010BD4464004008B500F0A1F8044A137843F01003137000F09EF808BD00BF9A65004008B5044A137843F001031370F2
:4021C000FFF7EAFF08BD00BF78650040054B1A7802F0F8021A701A7800F0070010431870704700BF8A65004008B50120FFF7EEFF08BD00BF08B5054B1B7823B9FFF7F4FF54
:402200000122024B1A70FFF7D5FF08BD8C81FF1F08B500F065F8044A137843F01003137000F062F808BD00BF9665004008B5044A137843F001031370FFF7EAFF08BD00BF82
:4022400075650040054B1A7802F0F8021A701A7800F0070010431870704700BF8665004008B50520FFF7EEFF08BD00BF08B5054B1B7823B9FFF7F4FF0122024B1A70FFF749
:40228000D5FF08BD8D81FF1F2F22014B1A7070478765004008B500F023F8044A137843F02003137000F020F808BD00BF9765004008B5054B1B7823B9FFF7E6FF0122024B46
:4022C0001A70FFF7E7FF08BD8E81FF1F000000000230800803D000BF01380046FCD17047EFF3108072B6704780F31088704700BFCBB20370C1F307234370C1F307418170F7
:40230000704700BF08B5144B1B7803F00303012B02D0022B04D00FE00F4B1B79DBB20CE00D4B1B7903F07F0303EB43039A000B4B1A44937ADBB200E00023022B07D8084A4C
:402340001268D35C022B04D1FEF7D2FC08BD002008BD002008BD00BF00600040D08BFF1FB88BFF1F014B1868704700BF6481FF1F0E4B70B51E460E4C0025E41AA410A542E8
:4023800004D056F8253098470135F8E700F0FEF8084B094C1E46E41AA4100025A54204D056F8253098470135F8E770BD982500009825000098250000A025000010B5431E48
:4023C0000A44914204D011F8014B03F8014FF8E710BD03460244934202D003F8011BFAE77047000000000000205100401000405100403000C0510040100000000140001043
:4024000000140140000800400140000A004C0140000200500140200030313233343536373839414243444546000000000100000034240000010000007825000000000000DB
:4024400000000000010000004C24000001000000342500000300000078240000000000000000000000000000000000000000000074240000020A00000000810308000200C0
:402480000100820240000A000100030240000A0002030000040309042C0343007900700072006500730073002000530065006D00690063006F006E0064007500630074002E
:4024C0006F007200100355005300420055004100520054003803430044004300200043006F006D006D0075006E00690063006100740069006F006E00200049006E007400FC
:40250000650072006600610063006500260343004400430020004400610074006100200049006E0074006500720066006100630065000000090243000201018032090400E6
:40254000000102020103052400100104240202052406000105240100010705810308000A09040100020A000004070582024000000705030240000000120100020200000891
:40258000B40432F20100010280014300F8B500BFF8BC08BC9E4670474D0000005D040000F8B500BFF8BC08BC9E46704729000000C0250000C880FF1FA0000000000B0000AC
:4025C000000000007F800000070000000000C05D80BB000030000000006CDC0200C2010000000800C201000000080000A1200000000002000000FFFFFF00000000000000AD
:40260000000000000000000000000000000000000000000000000000000000008A2500000000000000000000000000000000000000000000000000000000000000000000EB
:40264000000000000000000000000000000000000000000000000000000000000481FF1F0000000000000000000000000000000000000000000000000000000000000000B7
:40268000000000000000000000000000000000000000000000000000000000000000000000000000000000000000000000000000000000000000000000000000000000001A
:4026C00000000000000000000000000000000000000000000000000000000000000000000000000000000000000000000000000000000000000000000000000000000000DA
:402700000000000000000000000000000000000000000000000000000000000000000000000000000000000000000000000000000000000000000000000000000000000099
:402740000000000000000000000000000000000000000000000000000000000000000000000000000000000000000000000000000000000000000000000000000000000059
:020000040003F7
:0200000480007A
:4000000001450040045200400264004003650040360001400A0101401F0201401A030140420401401D0501402A06014022070140020D01404814014027150140331601401A
:400040003317014036180140151901401F1A0140151B0140044001400C41014003420140054301400345014002460140084701400548014005490140024C01400650014005
:40008000015101407E020001010318027C40820186018601877F8A0140204104440647B0482049FF4AFF4BFF4CEF4D554E704F48501C5A045D095F01610863086508670895
:4000C0006850690A6A406BA86CC06E406FA8C060C104C402C9FFCAFFCBFFCCEFCD55CE72CF48D01CD201DA04DB04DD99DF01E108E308E508E708E850E90AEA40EBA8ECC0D7
:40010000EE40EFA8400443014604470148084F2052026F01D0A5D22440604104440245ED460C470F481749FF4AFF4BFF4CEA4D554EF24F48501C54015A045B045D995F0130
:4001400061086308650867086850690A6A406BA86CC06E406FA829022B80460447014F25560857805C805D0266086705808083108F2094049B019E04A202A408A710D0A041
:40018000D220D690D870E248EA0408010F011E0330013101320234013E11402041044405470B481049FF4AFF4BFF4CEF4D554E704F48501C580459085A045B045C995D094C
:4001C0005F0161086308650867086850690A6A406BA86CC06E406FA8C060C104C405C9FFCAFFCBFFCCEFCD55CE72CF48D01CD201DA04DB04DD99DF01E108E308E508E70857
:40020000E850E90AEA40EBA8ECC0EE40EFA800100A0218141A401B10220139404004430147014A024E024F20500C520469506F01788094049E04A202A408A730C002C20168
:40024000CE08D085D238DE08406041044405450D460E47CF483549FF4AFF4BFF4CEA4D554EF24F48501C54015A045B045D995F0161086308650867086850690A6A406BA806
:400280006CC06E406FA88B018C019A03B002B401B501BE10D804D908DC99DF010040092018401920212039103C013D0247014E024F24550156485C015E406648670478808F
:4002C0009008911092409B019C80A202A310A720C001C202CE04D080D230D690D870DE08E208EA04050A073409120B2C191C1A011B2223012F01330134013506373A3B201B
:400300003F0440604105440246B0480849FF4AFF4BFF4CEF4D554E704F48501C580459245A045C985D095F1161086308650867086850690A6A406BA86CC06E406FA8C060E5
:40034000C104C402C9FFCAFFCBFFCCEFCD55CE72CF48D01CD201DA04DB04DD99DF01E108E308E508E708E850E90AEA40EBA8ECC0EE40EFA809201B2021602208230129012B
:400380002A8031203828400844084701480249204D2050106C026D806F017A0883018C04900C9580980899219A80A540A720AA10C202CA09CC04CE06D0A4D22CDE04E0012A
:4003C000E64040604101440245ED460C470F481749FF4AFF4BFF4CEA4D554EF24F48501C54015A045B045D995F0161086308650867086850690A6A406BA86CC06E406FA88F
:400400008003860388038E018F01940398039C03AE03B201B402B501BE14D602D804D904DB24DC80DD90DF1100A8010109A8100218041B08221029022B803980440845400C
:400440004D204F05560857805D025E8060806101660867056816690171A97B088008900899209A809C80A040A240A720B040B120B2C0B520C00FC207C401CE08D030D220E3
:40048000D690D870DE04E604EA02EC20EE08403041044405460B480449FF4AFF4BFF4CEF4D554E704F48501C52015A045B045D995F0161086308650867086850690A6A40D5
:4004C0006BA86CC06E406FA8C030C105C401C9FFCAFFCBFFCCEFCD55CE72CF48D01CDA04DD09DF01E108E308E508E708E850E90AEA40EBA8ECC0EE40EFA840014308441075
:40050000470148024E0257806C026F01838098109B40A308B010B308B740D0CAD218E830EA02EE0840304105440145CD460E470F481749FF4AFF4BFF4CEA4D554EF24F4863
:40054000501C54015A045B045D995F0161086308650867086850690A6A406BA86CC06E406FA840014308480249014B04518859015B40618863048001820294019B40A0027A
:40058000A308A602D00AD208D609D80E338136083710CCF05301560286088E029F01A608A780AB10D480D620E210EA2097029F01A780230497029F01A780C8108580A7408F
:4005C000AB409D80A740018008080B040F809D80A740C002C20E9702AF81B304EA40EE1056208E20AB01D440EE20AC08AF04010109010B0111011B011D0100AA0003030032
:40060000030000004000000000000000C0000000000B0B0000000000000202000200000000000000000000000000000000000000000000000000000000000000000000009B
:40064000000000000000000000000000000000000000000000000000000000000000000000000000000000000000000000000000000000000000000000000000000000007A
:40068000000000000000000000000000000000000000000000000000000000000000000000000000000000000000000000000000000000000000000000000000000000003A
:4006C00000000000000000000000000000000000000000000000000000000000000000000000000000000000000000000000000000000000000000000000000000000000FA
:4007000000000000000000000000000000000000000000000000000000000000000000000000000000000000000000000000000000000000000000000000000000000000B9
:0200000490006A
:0400000000004005B7
:0200000490105A
:04000000BC90ACAF55
:0200000490303A
:02000000078B6C
:0200000490402A
:4000000000000000000000000000000000000000000000000000000000000000000000000000000000000000000000000000000000000000000000000000000000000000C0
:400040000000000000000000000000000000000000000000000000000000000000000000000000000000000000000000000000000000000000000000000000000000000080
:400080000000000000000000000000000000000000000000000000000000000000000000000000000000000000000000000000000000000000000000000000000000000040
:4000C0000000000000000000000000000000000000000000000000000000000000000000000000000000000000000000000000000000000000000000000000000000000000
:0200000490501A
:0C00000000012E16106900012E2617F4D6
:00000001FF