:4000000000800020110000001D0500001D05000008B5044B1A6803F53F5302331A6000F09DFA00BFFA46004010B5054C237833B9044B13B10448AFF300800123237010BD9C
:40004000B081FF1F00000000D44B0000084B10B51BB108490848AFF300800848036803B910BD074B002BFBD0BDE81040184700BF00000000B481FF1FD44B0000C880FF1FF4
:400080000000000008B500F099FF98B10A4800F0ADFF0A4B187000F09DFF0028FBD0074B1978054800F094F8002803DA0521044800F05CFF08BD00BF5887FF1FE887FF1FEC
:4000C000D84B000008B50021084600F013FD00F049FD0028FBD000F0FDFE08BD08B562B6FFF7F0FF002000F0E3FB02F03FF902F051F902F02FF802F09DF802F0E7F802F067
:4001000021F902F02DF802F09BF802F0E5F802F01FF902F06FF902F073F902F0DBF902F0EDF902F01BFA02F01FFA01F05FFF074801F03CFF40F2A23002F020F8044802F0B2
:400140008DF8FF2000F0B4FBFEE700BF85000000E3A59B0010B50446002000F0A9FB204602F06AFE174BD3E9002302F057FA164CC4E9000102F064FC000E40EA012020F01E
:400180007F4001F0FBFFD4E9000102F059FC20F07F4002F063F8D4E9000102F051FC0B4B1870020A5A70020C9A70000ED8701971090A59710621184600F0D8FEFF2000F094
:4001C00077FB10BDD080FF1FD081FF1FD48BFF1F10B504460622064902F071FE28B90721A01DFFF7B7FF012010BD4FF0FF3010BDE04B0000FEE700BFF0B40022174611E001
:4002000050F82760F3B226F0FF0608E001EB420511F812406D78A5550132013BDBB2002BF4D10137232FEBD9F0BC704708B50A46002102F03CFE08BDF8B5284B1B78DBB2DE
:40024000274E3478E4B2274F3D78EDB203F00701254A11701B090132137044F00303337045F003033B7040F20222204B1A80782220331A7040231E4A1370092102F22F7296
:400280001170953213700232137002F21D1213708021043211701022164802706B300170013002703F300370134B19704C331A70202203331A7022221F331A704FF48272E2
:4002C00004331A80E02212331A700A2000F082FA3D7034704422094B1A70F8BDCF010049F8460040F94600406E5800400C5100403D510040285A0040D45A004076580040B7
:4003000008B502F0C9FD08BD38B503222C4B1A80182202331A7004222A492B48FFF7F0FF06222A4B1A705222A3F580731A70284B1B78DBB2274A13704FF4E262264B1A80AD
:4003400041F25122023B1A80002419250CE0234B1B7803F0010343EA440404F003044FF4F07002F011F9013D0DB1032CEFD115B90320FFF73FFF1A4A4FF480731380072344
:400380001370002317490B704820023108701370053213700222144B1A7004220A331A70124A137843F001031370013A137843F001031370013A137843F08003137038BD5D
:4003C000804000401007004800410040004300400F010049A14600402242004025420040044000400640004001400040A243004038B572B6344A137843F004031370002420
:400400000CE0324D630019194A0011462A44084691882858FFF70AFF0134E4B2062CF0D92B494FF09040FFF7E7FE04212948FFF7FDFE04212848FFF7F9FE04212748FFF710
:40044000F5FE274A137843F0020313701032137843F002031370234C237843F040032370A2F58632513A137843F01003137008221D491E48FFF744FF0A221D491D48FFF7ED
:400480003FFF08221C491D48FFF73AFF08221C491C48FFF735FF08221B491C48FFF730FF1B4A137843F0080313701A4D61232B70FFF72AFFC1232B70FFF7BEFE0E22214689
:4004C0001548FFF71DFF38BDE8460040E84B00009000004800760040087600401076004003500140A0430040E406004802510040EC060048F0510040F806004812510040C5
:40050000000700482251004008070048325100402243004000480040B043004008B502F08FFC03680C2B00D1FEE7FEE708B5094B1A681044084BC31A802B02DC054B186060
:4005400005E002F07DFC0C2303604FF0FF32104608BD00BFD880FF1F488DFF1F08B5104E104D16E029686B68AC68002204E051F8040B43F8040B0432A242F8D1E868002203
:4005800003E0002143F8041B04328242F9D11035013E002EE6D102F059FCFFF79FFDFEE7010000002C4F000008B5114A114B1A60114A136843F40073136000230AE0032B5A
:4005C00003D80E4A52F8231000E00D490D4A42F8231001332F2BF2D90B4B1A780B4B1A70084A0B4B1A60FFF703FF00F013F808BD0004FA050CED00E014ED00E00000000099
:400600001D0500000080FF1FBC760040C080FF1F08ED00E00B4A7F2313708021517007E0DA0002F1804202F5F042013BDBB21370002BF5D1DB0003F1804303F5F0430022BE
:400640001A707047DC80FF1F172815D831B103010A495A5C42F020025A5405E0030107495A5C02F0DF025A540001044A835C43F00103835400207047012070471070004087
:4006800017280BD80001064BC25C02F0FE02C254C25C02F0DF02C25400207047012070471070004017280BD80001064A835C03F0F103490001F00E011943815400207047A0
:4006C000012070471070004041F6FF73994201D14FF4005141F6FF739A4201D14FF40052172808D8C00000F1804000F5EC408180C280002070470120704700BF172805D80E
:40070000034B03EB0010417200207047012070471070004017281BD810B4C00000F1804404F5EC44D201D2B201F07F01114321709DF804201201D2B203F00F03134363708C
:400740009DF8083003F00F03A3700020E07001E00120704710BC704710B501F01DFF0A4B5B78182B0BD9084A1478013B5370E30003F1804303F5F0431B78137000E0FF240C
:4007800001F00EFF204610BDDC80FF1F10F0800F0CD111F4704F0BD1C00000F1804000F5F04001808270C37000207047012070470120704710F0800F08D1C00000F18040E6
:4007C00000F5F0408180C280002070470120704701BE704708B5034B1B7A00FB03F001F0D3FE08BDE480FF1F70B504460E46074B1D681F2802D90020FFF7EAFF04F01F0403
:40080000103455F8240045F8246070BD08ED00E038B504460D46072902D90020FFF7D8FF1F2C02D90020FFF7D3FF04F01F0000F1604000F564406D01EDB2057038BD00BF3D
:40084000134B1B78DBB20360124A127843EA02230360114A127843EA024303600F4A127843EA026303600E4B1B78DBB243600D4A127843EA022343600B4A127843EA024327
:4008800043600A4A127843EA02634360704700BF0301004904010049EC4600400201004901010049000100490501004906010049014B1870704700BF78640040F8B501F07B
:4008C0006BFE0546484A137843F0010313701032137843F0010313700127444B1F700226943B1E7002F5E2521B32137803F07F0313700020FFF76EFF3D4C237803F0F9038A
:4009000023703C4A137803F0DF03137023783B4323703846FFF75EFF2820FFF75BFF364B1A7802F07F021A701A7802F0BF021A702378334323703046FFF74CFF237843F09E
:400940000403237000232D4A13700132137004E0FF212B4AD15401339BB2082BF8D9284601F01EFE07211720FFF752FF25491720FFF73AFF07211820FFF74AFF22491820B0
:40098000FFF732FF07210420FFF742FF1F490420FFF72AFF07210120FFF73AFF1C490120FFF722FF07210220FFF732FF19490220FFF71AFF07210320FFF72AFF16490320DD
:4009C000FFF712FF00211620FFF722FF13491620FFF70AFF06210C20FFF71AFF10490C20FFF702FFF8BD00BFA54300409D6000409443004012600040F851004084600040C4
:400A0000608CFF1F991500008113000095150000F51400002515000059150000A11500004516000008B5254B18700023244A1370244A1370244A1370244A1370244A137071
:400A4000244A1370244A1370244B4FF400021A604FF080721A6010221A6002221A6004221A6008221A6007201D4A10704FF480021A6020221B4B1A7011B1012906D00BE001
:400A8000194A137803F0FE0313700AE0164A137843F00103137004E0134A137843F0010313700322114B1A708022203B1A70012001F06AFD04220E4B1A7008BD178DFF1F21
:400AC000168DFF1F888CFF1F898CFF1F8A8CFF1F1A8DFF1F8B8CFF1F878CFF1F00E100E09E6000409C60004009600040286000401260004038B504460D46064B1B7823B9C9
:400B0000FFF7DCFE0122034B1A7029462046FFF789FF38BDF081FF1F00230A4A13700A4A13700A4A13700A4A13700A4A13700A4A13700A4A13700322094B1A708022203B0F
:400B40001A707047168DFF1F888CFF1F898CFF1F8A8CFF1F1A8DFF1F8B8CFF1F878CFF1F28600040014B1878704700BF898CFF1F00EB40008300024A13445878704700BFCB
:400B8000A88CFF1F431EDBB2072B0BD8064B00011A18185C00F00F00537843EA0020023880B2704700207047FC5F004010B5044600EB40039800184B1844037913F0800F9A
:400BC00003D00A0C4FF4804302E00B0C4FF48042022C0AD0032C0FD0012C13D10021084601F04EFA0D4B18550CE00021084601F029FA0A4B185505E00021084601F004FA00
:400C0000064B1855631EDBB2072B03D8FFF7A4FD034B185510BD00BFA88CFF1F548CFF1F608CFF1F431EDBB2072B6FD82DE9F04104460E46154600EB40029300344A134467
:400C4000DB889BB2C3F500739D4209D900EB400293002F4A1344DD88ADB2C5F50075ADB204EB440293002A4A1344DB7843EA15232849220188188B54EBB24370264B1B5D5F
:400C8000FF2B03D131462046FFF790FF04EB440293001F4A134400225A705EB355B31F4F385DFFF7EDFCDFF870801123FE22294618F80400FFF76AFD22010832184D2A443A
:400CC00092B2B1B218F80400FFF774FD18F80410385DFFF713FD0121385DFFF7B5FC24012B5D43F002032B552B5D03F0FD032B55BDE8F08104EB44029300054A13445A79FE
:400D0000D2B22401074B1A55BDE8F081704700BFA88CFF1FFC5F0040608CFF1F548CFF1F70600040FE5F00402DE9F843002944D0044615460F46002841D0082841D8FFF71B
:400D400021FFA84203D22046FFF71CFF05461F4B1B5DFF2B03D139462046FFF727FFDFF8748018F80400FFF78BFCDFF860901223FE22294619F80400FFF708FD210108319F
:400D8000134E314489B2BAB219F80400FFF712FD19F8041018F80400FFF7B0FC012118F80400FFF751FC2401335D43F002033355335D03F0FD03335504E0002502E00025B8
:400DC00000E000252846BDE8F88300BF608CFF1F70600040548CFF1F431EDBB2072B0BD8420002449300054A134400225A705A79D2B20001024B1A54704700BFA88CFF1FFE
:400E0000FE5F004010B4FF2400230EE0094AD25C02EB42029100084A11448A7AD2B2824201D11C4602230133DBB2012BEED9204610BC7047748CFF1FA88CFF1F10B5204C50
:400E40002079FFF7DFFF237813F0800F0ED06378DBB2212B2FD11B4B07221A80C0EBC000194A1044586000F0F9FA10BD144B5B78DBB2202B02D0222B10D01EE0114A072307
:400E80001380C0EBC00310490B4453600F4A135C43F00103135400F009FB10BD084B9B780B4A22F81030094A135C43F00203135400F092F910BD002010BD002010BD00BF58
:400EC00000600040988CFF1FF480FF1F7C8CFF1F808CFF1F10B500241F4B1C701F4B1C705C700AE01E4B185DC0B2431EDBB2072B01D8FFF771FF0134E4B2012CF2D9194BCD
:400F00001B7813F0FF0F1AD0154B1B7813F0FF0F17D0154B1B7813F0FF0F14D0114B1B78DBB2082B11D80E4B1B78DBB2082B0ED80D4B1B78DBB2082B0BD8002010BD01208A
:400F400010BD012010BD012010BD012010BD012010BD012010BD00BFF181FF1F7C8CFF1F708CFF1F6C8CFF1F748CFF1F70B506460D460F4B1B780F4AD45CE4B204EB440236
:400F800093000D4A13441B899BB28B4209D204EB44029300084A13441D89ADB20020FFF717FC2A4631462046FFF73CFE70BD00BFF181FF1F6C8CFF1FA88CFF1F08B5034B4C
:400FC0001B78034AD05CFFF7D3FD08BDF181FF1F708CFF1F08B5034B1B78034AD05CFFF7C7FD08BDF181FF1F6C8CFF1F38B50D4B1B780D4AD45CE4B204EB440293000B4A62
:4010000013441A8992B201462046FFF78DFE05462046FFF7ADFD0128FAD02046FFF7DCFE284638BDF181FF1F708CFF1FA88CFF1FC37803F0030390F9020000280FDA032B6D
:4010400006D002F001030B48C15442F001020EE0C2F380030848C15442F0040207E0032B05D0C2F340030548C15442F002021046704700BF6C8CFF1F748CFF1F708CFF1FB0
:401080001D4B19781D4A13889BB20B449BB2138000220FE01A494B681B78DBB2194883544B6801334B600132D2B20B889BB2013B9BB20B80124B1B889BB20BB1072AE9D901
:4010C0000D4B1B78DBB2082B00D05AB10E490B7883F080030B700F210C4B197002210C4B197004E0022309490B7009490B70094B1A70014B1A707047878CFF1F148DFF1F0E
:40110000988CFF1F006000408C8CFF1F868CFF1F168DFF1FA48CFF1F0222074B1A708022064B1A700F22064B1A700023054A1370054A137001207047168DFF1F8C8CFF1F39
:40114000868CFF1F878CFF1FA48CFF1F08B5FFF797FF08BD10B4194B197801F00F010239C9B2174A13889BB20B449BB21380002011E0144A5468144B1B5CDBB223705368EE
:40118000013353600130C0B20139C9B213889BB2013B9BB213800B4B1B889BB20BB10029E7D10A4B19700A4A137883F0800313700B22084B1A7010BC704700BF29600040BE
:4011C000148DFF1F988CFF1F00600040A48CFF1F8C8CFF1F868CFF1F0623064A1370064A13708022054B1A700022054B1A700120704700BF168DFF1F868CFF1F8C8CFF1F95
:40120000A48CFF1F064B9B6843B1054B9A6810709A6804490988518000229A60704700BF988CFF1F148DFF1F08B5134B1A78D2B21A701B78DBB213F0800F02D00F4A1370E7
:4012400008BD0220FFF7DEFF0D4B1B7803F06003202B05D0402B06D043B900F0E7FC06E001F0ACF903E000F08BFE00E0002010B90322024B1A7008BD28600040868CFF1FE9
:401280000060004008B5094B1978094A13889BB20B449BB213800022064B1A700120FFF7B1FF0322044B1A7008BD00BF878CFF1F148DFF1F168DFF1F868CFF1F08B50B4B48
:4012C0001B78DBB2042B06D0062B07D0022B0BD1FFF7D8FF08BDFFF73DFF08BD0320FFF791FF0322024B1A7008BD00BF168DFF1F868CFF1F08B50022044B1A700120FFF746
:4013000081FF0322024B1A7008BD00BF168DFF1F868CFF1F08B50B4B1B7813F0FF0F07D0084A137843F0800307490B70002313700022064B1A700120FFF764FF0322044B3F
:401340001A7008BD1A8DFF1F08600040168DFF1F868CFF1F08B5094B1B78DBB2042B06D0062B07D0022B07D1FFF7F0FE08BDFFF7C1FF08BDFFF7CEFF08BD00BF168DFF1F51
:4013800008B5284B1B78DBB213F0100F48D013F0800F0CD003F00F03012B16D1FFF744FF214B1B7813F0800F11D1012312E013F0400F03D0FFF7CEFF01230BE013F0200F32
:4013C00007D0FFF77BFF012304E0002302E0002300E0002323B3134B1B7813F0800F1FD1124B1B78124A12781343124A13701278D2B2934214D10C4B1B78DBB2094A127803
:4014000012F0800F07D1084B1B78DBB2054A1370137803F00F03044A1278D2B29342EAD108BD00BF28600040868CFF1F8C8CFF1FA48CFF1F296000400022064B1A80064B5B
:401440009B682BB1044A916800230B7092685380704700BF148DFF1F988CFF1F08B50F4B1B889BB213B9FFF757FE15E002220C4B1A7000220B4B1A70FFF7DEFF0A4AD179D9
:40148000937943EA0123054A128892B2934201D2024A1380FFF7F4FD012008BD988CFF1F168DFF1F8C8CFF1F0060004008B504220B4B1A7080220B4B1A70FFF7BDFF0A4A2A
:4014C000D179937943EA0123084A128892B2934201D2064A13800B22054B1A70012008BD168DFF1F8C8CFF1F00600040988CFF1F868CFF1F0122094B1A700F3B9B7C084BDF
:401500001B7B03F00303934204D0054AD37B83F08003D3730122024B5A7370470B600040A88CFF1F02220A4B1A700F3B93F82230084B1B7E03F00303012B04D0054AD37EFA
:4015400083F08003D3760122024B5A76704700BF0B600040A88CFF1F04220C4B1A700F3B93F832300A4B93F8243003F00303012B06D0074A92F8273083F0800382F8273013
:401580000122034B83F82520704700BF0B600040A88CFF1F704700BF08B5FFF7BDFA08BD70B4234B1C78E4B201233DE014F0010F37D01A4619011F480844817840780140AB
:4015C00011F0010F17D003EB4305A8001A4D2844007910F0800F0ED0164D1E01A85D00F0FE00A85503EB4305A800134D28444579EDB21248855511F0020F0FD002EB42058A
:40160000A8000D4D2844007910F0800F06D102EB4205A800084D2844002545701201084881540133DBB26408002CBFD170BC70479F60004070600040A88CFF1FFE5F0040A4
:401640007260004008B500F0A7FC08BD70B588B0054603AC174E0FCE0FC43368237035B322232B7003236B7001A8FFF7E9F8002402231AE008AA224412F81C2C08A901EB16
:40168000121111F8141CE954581C00212954981C02F00F0208AE324412F8142C2A54DA1CA9540134E4B20433DBB2212BE2D908B070BD00BF144C000030B4012341E01946BF
:4016C00023481A0184180C2585541F22627003EB430082001F480244527912F0FF0F13D003EB430082001B480244127912F0800F04D01801184A024495700AE01801164A18
:4017000002440820907004E01801134A0244802090704800084482000E480244D488E4B208010B4901448C71D088C0F30720C871D088C0B20871D288C2F307224A710133E3
:40174000DBB2082BBBD9FF22044B1A7030BC704770600040A88CFF1FFC5F00400A600040074B1A78074B03EBC2035B681A7C824204D9C0001030184440687047002070475C
:40178000178DFF1F404C0000F8B5404B1B7813F0FF0F79D03D4B18780138C0B2FFF7E0FF047AC2683A4B1878C0B200236AE01178884264D13749095CC9B25578A9425ED1B3
:4017C000917801F07F01D67806F00306DFF8C8E04D000D44AF000EEB07054FF0000C85F803C092F802C085F804C092F803C00EF807C097882F8192F90250002D0DDA012E30
:4018000001D1072700E00D274E000E44B500224E35446F7101266E700CE0012E01D1052700E009274E000E44B5001B4E35446F7100266E70DFF868E00F010EEB07060125D2
:40184000B57001FA05F529448D00134929440D89C5F307250EF807500D89EDB27570CE88F6B20E4D3D44AE71CE88C6F30726EE71CE88F6B22E71C988C1F307216971083228
:401880000133DBB2A34292D3F8BD00BF898CFF1F8A8CFF1F948CFF1FA88CFF1F70600040FC5F0040034B1A78034B03EBC2035868704700BF178DFF1F404C000008B5084B92
:4018C00018780138C0B2FFF74BFF30B142681279023200EBC203586808BD002008BD00BF898CFF1F2DE9F047002310E0724D5900CA189600AC190022AA55A270E27022813A
:40190000A272627034462C4462710133DBB2082BECD940B90AE000226849CA546849CA540133DBB200E00023012BF4D9654B1B7813F0FF0F00F0BD80624B18780138C0B282
:40194000FFF70EFF80464368DB7913F0400F05D05D4A137843F00103137004E05A4A137803F0FE03137098F808704FF0000A01266FE0D8F80C50002467E0AB7803F07F030C
:401980009E425FD1314606EB460083004A4803441B899BB2A888834206D206EB460E4FEA8E03454A134418812B784448C35CDBB26878834246D195F802C0DFF8FCE04B00DD
:4019C0000B4498000EEB000383F804C0EB780EF80030EB7803F0030395F90200002813DA012B02D14FF0070901E04FF00D09DFF8C8E04B0003EB010C4FEA8C00704480F8F1
:401A000005900121417012E0012B02D14FF0050901E04FF00909DFF8A0E04B0003EB010C4FEA8C00704480F8059000214170AB790A2B01D0022B05D1524631462846FFF739
:401A4000F7FA824608350134E4B2BC4295D30136F6B2082E8DD9D8F80C0000220CE0837803F07F0310F8084B03EB43039900124B19448C720132D2B2BA42F0D3FFF71EFF01
:401A8000124B1860002301210FE00B4D4A00501884002C44E380228992B213449BB203F0010213449BB20131C9B20829EDD9FFF703FEBDE8F08700BFA88CFF1F948CFF1F89
:401AC000848CFF1F898CFF1F8B8CFF1F908CFF1F08B5154B1B7903F07F035A1ED2B2072A20D8590019448A0010490A44917841F0010191700021D170517841F00201517087
:401B0000127912F0800F05D01B01094A1A448D23937004E01B01064A1A4489239370FFF75BFB08BD002008BD00600040A88CFF1FFC5F0040274B1B7903F07F035A1ED2B2DD
:401B4000072A44D810B5590019448A0022490A44917801F0FE0191700021D1701F4C1801215C01F07F012154517801F0FD015170127912F0800F13D003EB43018A00164984
:401B80000A445278D2B2012A04D1224602440C23937019E01B01114A1A440D23937013E003EB43018A000C490A445278D2B2012A05D11B01094A1A440823937004E01B010C
:401BC000064A1A4409239370FFF706FB10BD0020704700BF00600040A88CFF1FFC5F004010B50E4B1C79E4B20D4B18780138C0B2FFF7B6FD43681B799C4201D9022C0AD895
:401C0000084A135DDBB208490B55044B9B78DBB21355012010BD002010BD00BF00600040898CFF1F948CFF1F848CFF1F10B59C4B1B78DBB200219B4A118013F0800F00F08F
:401C4000AD80974A5278D2B20A2A00F27481DFE812F06900720172017201720172010B007201920072019A008D4BDB78DBB2012B09D1FFF717FE42688A4B5A6012221A808F
:401C8000FFF7ECFB10BD864BDB78DBB2022B13D1834B9878FFF764FD002800F04E814268804B5A605A68D1785A68927842EA01221A80FFF7D3FB10BD794BDB78DBB2032B4A
:401CC00005D02CE00A7811440133DBB201E000237549734A9278D2B2934203D20A7812F0FF0FEFD16E4B9B7813F0FF0F0BD06C4B9B78DBB26D4A127C934204D16C4C204646
:401D0000FFF7A4FC21460B7813F0FF0F00F017810B78644A13805160FFF7A0FB10BD00F04DFC10BD13F0030317D0022B40F009815C490B805A4B1B7903F07F0303EB4303C8
:401D40009A005C4B1A449278D2B25B4B1A7000225A704B60FFF782FB10BD524902230B80564B1A78D2B2544B1A7000225A704B60FFF774FB10BD4B4B01221A80504A5A6094
:401D8000FFF76CFB10BD474A01231380444B1B794C490B445360FFF761FB10BD404A5278013A0A2A00F2CF80DFE812F04C00CD009800CD000B00CD00CD00CD001300CD003B
:401DC0003000374B9B78DBB23F4A1370FFF704FA10BD334B9B7803F0FF041BB1601EC0B2FFF7BEFC04B110B9002C40F0AE80344B1B78DBB29C4206D0314B1C700120334BCF
:401E00001870FFF76FFDFFF7E7F910BDFFF7E8FE002800F09C80224A1379DBB21279D2B22B490A702B4AD25CD2B22649CB5CDBB29A4204D00122254B1A70FFF7A5FCFFF7DF
:401E4000CBF910BD03F00303012B17D04BB1022B7FD1134B9B7813F0FF0F7CD1FFF76AFE10BD0F4B9B78DBB2012B76D1134A137803F0FD031370FFF7AFF910BD084B1B7935
:401E8000DBB2012B6BD8064B98781B79DBB21249CA5C22EA0002CA54FFF79EF910BD00BF00600040988CFF1FA84C00008C4D00001C8DFF1FA88CFF1FF481FF1F8B8CFF1F4E
:401EC000898CFF1F948CFF1F1A8DFF1F888CFF1F8A8CFF1F848CFF1F188DFF1F03F00303012B17D04BB1022B3BD1224B9B7813F0FF0F38D1FFF7ECFD10BD1E4B9B78DBB2C5
:401F0000012B32D11C4A137843F002031370FFF763F910BD174B1B79DBB2012B27D8154B98781B79DBB21549CA5C22EA0002CA54FFF752F910BD002010BD002010BD0020B0
:401F400010BD002010BD002010BD002010BD002010BD002010BD002010BD002010BD002010BD002010BD002010BD002010BD002010BD00BF006000408B8CFF1F188DFF1F21
:401F8000044B1B7813F0800F01D0024B5B780020704700BF00600040024B1878C0F38010704700BF8F450040704700BF024B1B68C3F89400704700BF08ED00E04001C0B249
:401FC000014B1870704700BF15E400E04FF40012014B1A60704700BF00E100E04FF40012014B1A60704700BF80E100E008B5FFF7F5FF0448FFF7DAFF0620FFF7DFFFFFF7E8
:40200000E5FF08BDA91F0000F0B583B016461F460B4C022525700023019300930A4601462846FEF777FB3A4631462078FEF74CFB29462078FEF736FB207803B0F0BD00BF1E
:402040000E81FF1FF0B583B016461F460B4C012525700023019300930A4601462846FEF759FB3A4631462078FEF72EFB02212078FEF718FB207803B0F0BD00BF0F81FF1F9B
:40208000F0B583B016461F460B4D00242C700194009423460A4601462046FEF73BFB3A4631462878FEF710FB02212878FEF7FAFA287803B0F0BD00BF1081FF1F08B500F057
:4020C0006BFA044A137843F01003137000F068FA08BD00BF9C64004008B5044A137843F001031370FFF7EAFF08BD00BF7B640040034601280BD10F4A1278C2F3C10212B185
:40210000022A02D005E0002004E0012002E0FE2000E00220022B0BD1064B1B78C3F341132BB1022B01D000207047012070470220704700BF6C640040054B1A7802F0F8029F
:402140001A701A7800F0070010431870704700BF8C64004008B50120FFF7EEFF08BD00BF08B5054B1B7823B9FFF7F4FF0122024B1A70FFF7B1FF08BDF681FF1F10B5044618
:402180000120FFF7B5FF28B12146034800F00CFA002010BD112010BD4A64004008B500F0FBF9044A137843F01003137000F0F8F908BD00BF9F64004008B5044A137843F046
:4021C00001031370FFF7EAFF08BD00BF7F640040034601280BD10F4A1278C2F3C10212B1022A02D005E0002004E0012002E0FE2000E00220022B0BD1064B1B78C3F3411365
:402200002BB1022B01D000207047012070470220704700BF6F640040054B1A7802F0F8021A701A7800F0070010431870704700BF8F64004008B50120FFF7EEFF08BD00BFC0
:4022400008B5054B1B7823B9FFF7F4FF0122024B1A70FFF7B1FF08BDF781FF1F10B504460120FFF7B5FF28B12146034800F09CF9002010BD112010BD4D64004008B500F08B
:402280008BF9044A137843F01003137000F088F908BD00BF9A65004008B5044A137843F001031370FFF7EAFF08BD00BF7A650040054B1A7802F0F8021A701A7800F0070011
:4022C00010431870704700BF8A65004008B50120FFF7EEFF08BD00BF08B5054B1B7823B9FFF7F4FF0122024B1A70FFF7D5FF08BDF881FF1F08B500F04FF9044A137843F093
:402300001003137000F04CF908BD00BF9665004008B5044A137843F001031370FFF7EAFF08BD00BF74650040054B1A7802F0F8021A701A7800F0070010431870704700BF15
:402340008665004008B50520FFF7EEFF08BD00BF08B5054B1B7823B9FFF7F4FF0122024B1A70FFF7D5FF08BDF981FF1F2F22014B1A7070478865004008B500F00DF9044A57
:40238000137843F02003137000F00AF908BD00BF9865004008B5054B1B7823B9FFF7E6FF0122024B1A70FFF7E7FF08BDFA81FF1F084A137843F060031370A2F5A652133AA8
:4023C000137843F0020313701032137843F002031370704777580040054B1A7802F0FC021A701A7800F0030010431870704700BF5A58004008B50020FFF7EEFF08BD00BFE1
:4024000008B5054B1B7823B90122034B1A70FFF7F1FFFFF7CDFF08BDFB81FF1F084A137843F0040313701032137843F00403137002F5A5521E32137843F080031370704741
:40244000A9430040044A137803F0FC0300F0030018431070704700BF0958004010B487B00446194B03AA1868596803C2197A11706A4653F80C0F596803C21B7A1370082C28
:402480001ED812490B7803F08003DBB20B70087806AB1C4414F80C3C14F8182C920002F00C02134303430B70094A137803F0F3031370117814F8183C0B4343F00C031370A6
:4024C00007B010BC704700BF284C00000A5800400958004008B50C22064B1A70064A1378DBB213700320FFF7B9FF0120FFF7AAFF08BD00BF085800400958004008B5054B18
:402500001B7823B90122034B1A70FFF7E3FFFFF785FF08BDFC81FF1F084A137843F060031370A2F5A652133A137843F0080313701032137843F0080313707047775800400D
:40254000054B1A7802F0FC021A701A7800F0030010431870704700BF5E58004008B50320FFF7EEFF08BD00BF08B5054B1B7823B90122034B1A70FFF7F1FFFFF7CDFF08BD08
:40258000FD81FF1F000000000230800803D000BF01380046FCD17047EFF3108072B6704780F31088704700BFCBB20370C1F307234370C1F307418170704700BF08B5144B5E
:4025C0001B7803F00303012B02D0022B04D00FE00F4B1B79DBB20CE00D4B1B7903F07F0303EB43039A000B4B1A44937ADBB200E00023022B07D8084A1268D35C022B04D171
:40260000FEF71CFC08BD002008BD002008BD00BF00600040A88CFF1F908CFF1F70B54FF0FF0C4CF4E06C1CEA11541DBF1CEA135594EA0C0F95EA0C0F00F0DEF82C4481EA8F
:40264000030621EA4C5123EA4C5350EA013518BF52EA033541F4801143F4801338D0A0FB02CE4FF00005E1FB02E506F00042E0FB03E54FF00006E1FB03569CF0000F18BF51
:402680004EF0010EA4F1FF04B6F5007F64F5407404D25FEA4E0E6D4146EB060642EAC62141EA55514FEAC52040EA5E504FEACE2EB4F1FD0C88BFBCF5E06F1ED8BEF1004FA0
:4026C00008BF5FEA500E50F1000041EB045170BD06F0004646EA010140EA020081EA0301B4EB5C04C2BFD4EB0C0541EA045170BD41F480114FF0000E013C00F3AB8014F104
:40270000360FDEBF002001F0004170BDC4F10004203C35DA0C341BDC04F11404C4F1200500FA05F320FA04F001FA05F240EA020001F0004221F0004110EBD37021FA04F600
:4027400042EB06015EEA430E08BF20EAD37070BDC4F10C04C4F1200500FA04F320FA05F001FA04F240EA020001F0004110EBD37041F100015EEA430E08BF20EAD37070BD12
:40278000C4F1200500FA05F24EEA020E20FA04F301FA05F243EA020321FA04F001F0004121FA04F220EA020000EBD3705EEA430E08BF20EAD37070BD94F0000F0FD101F007
:4027C0000046400041EB010111F4801F08BF013CF7D041EA060195F0000F18BF704703F00046520043EB030313F4801F08BF013DF7D043EA0603704794EA0C0F0CEA13554D
:4028000018BF95EA0C0F0CD050EA410618BF52EA4306D1D181EA030101F000414FF0000070BD50EA410606BF1046194652EA430619D094EA0C0F02D150EA013613D195EA16
:402840000C0F05D152EA03361CBF104619460AD181EA030101F0004141F0FE4141F470014FF0000070BD41F0FE4141F4780170BD70B54FF0FF0C4CF4E06C1CEA11541DBFD7
:402880001CEA135594EA0C0F95EA0C0F00F0A7F8A4EB050481EA030E52EA03354FEA013100F088804FEA03334FF0805545EA131343EA12634FEA022245EA111545EA10652D
:4028C0004FEA00260EF000419D4208BF964244F1FD0404F5407402D25B084FEA3202B61A65EB03055B084FEA32024FF480104FF4002CB6EB020E75EB030E22BFB61A75466D
:4029000040EA0C005B084FEA3202B6EB020E75EB030E22BFB61A754640EA5C005B084FEA3202B6EB020E75EB030E22BFB61A754640EA9C005B084FEA3202B6EB020E75EB78
:40294000030E22BFB61A754640EADC0055EA060E18D04FEA051545EA16754FEA06164FEAC30343EA52734FEAC2025FEA1C1CC0D111F4801F0BD141EA00014FF000004FF00D
:40298000004CB6E711F4801F04BF01430020B4F1FD0C88BFBCF5E06F3FF6AFAEB5EB030C04BFB6EB020C5FEA500C50F1000041EB045170BD0EF0004E4EEA113114EB5C0402
:4029C000C2BFD4EB0C0541EA045170BD41F480114FF0000E013C90E645EA060E8DE60CEA135594EA0C0F08BF95EA0C0F3FF43BAF94EA0C0F0AD150EA01347FF434AF95EA30
:402A00000C0F7FF425AF104619462CE795EA0C0F06D152EA03353FF4FDAE1046194622E750EA410618BF52EA43067FF4C5AE50EA41047FF40DAF52EA43057FF4EBAE12E7F1
:402A4000D0B500220E4B06460F46FFF7E7FD00F0D3F9044600F05AF900220A4BFFF7DEFD02460B463046394600F012F800F0C4F92346002242EA000210461946D0BD00BF5B
:402A80000000F03D0000F04181F0004102E000BF83F0004330B54FEA41044FEA430594EA050F08BF90EA020F1FBF54EA000C55EA020C7FEA645C7FEA655C00F0E2804FEA94
:402AC0005454D4EB5555B8BF6D420CDD2C4480EA020281EA030382EA000083EA010180EA020281EA0303362D88BF30BD11F0004F4FEA01314FF4801C4CEA113102D04042B0
:402B000061EB410113F0004F4FEA03334CEA133302D0524263EB430394EA050F00F0A780A4F10104D5F1200E0DDB02FA0EFC22FA05F2801841F1000103FA0EF2801843FAFB
:402B400005F359410EE0A5F120050EF1200E012A03FA0EFC28BF4CF0020C43FA05F3C01851EBE37101F0004507D54FF0000EDCF1000C7EEB00006EEB0101B1F5801F1BD3BE
:402B8000B1F5001F0CD349085FEA30004FEA3C0C04F101044FEA445212F5800F80F09A80BCF1004F08BF5FEA500C50F1000041EB045141EA050130BD5FEA4C0C404141EBA7
:402BC000010111F4801FA4F10104E9D191F0000F04BF01460020B1FA81F308BF2033A3F10B03B3F120020CDA0C3208DD02F1140CC2F10C0201FA0CF021FA02F10CE002F1BF
:402C00001402D8BFC2F1200C01FA02F120FA0CFCDCBF41EA0C019040E41AA2BF01EB0451294330BD6FEA04041F3C1CDA0C340EDC04F11404C4F1200220FA04F001FA02F39E
:402C400040EA030021FA04F345EA030130BDC4F10C04C4F1200220FA02F001FA04F340EA0300294630BD21FA04F0294630BD94F0000F83F4801306BF81F480110134013D8C
:402C80004EE77FEA645C18BF7FEA655C29D094EA050F08BF90EA020F05D054EA000C04BF1946104630BD91EA030F1EBF0021002030BD5FEA545C05D14000494128BF41F00B
:402CC000004130BD14F580043CBF01F5801130BD01F0004545F0FE4141F470014FF0000030BD7FEA645C1ABF194610467FEA655C1CBF0B46024650EA013406BF52EA033531
:402D000091EA030F41F4002130BD00BF90F0000F04BF0021704730B54FF4806404F132044FF000054FF0000150E700BF90F0000F04BF0021704730B54FF4806404F13204C8
:402D400010F0004548BF40424FF000013EE700BF42004FEAE2014FEA31014FEA02701FBF12F07F4393F07F4F81F06051704792F0000F14BF93F07F4F704730B54FF46074B9
:402D800001F0004521F0004120E700BF50EA010208BF704730B54FF000050AE050EA010208BF704730B511F0004502D5404261EB41014FF4806404F132045FEA915C3FF46F
:402DC000DCAE4FF003025FEADC0C18BF03325FEADC0C18BF033202EBDC02C2F1200300FA03FC20FA02F001FA03FE40EA0E0021FA02F11444C1E600BF4A0011D212F500129F
:402E000011D20DD56FF47873B3EB62520ED44FEAC12343F0004343EA505323FA02F070474FF00000704750EA013002D14FF0FF3070474FF000007047002100F079BE00008B
:402E4000014B1868704700BF7481FF1F0E4B70B51E460E4C0025E41AA410A54204D056F8253098470135F8E702F04EF8084B094C1E46E41AA4100025A54204D056F825301F
:402E800098470135F8E770BD144F0000144F0000144F00001C4F000010B5431E0A44914204D011F8014B03F8014FF8E710BD03460244934202D003F8011BFAE7704730B52C
:402EC00082B1451E013915F8013F11F8014FA34206D1EC431444E04201D0002BF3D11C46181B30BD104630BD2DE9F0410F46904601F00EFC04460D46B8F1000F11D0C7F315
:402F00000A53C3F16B03002B0BDD1B0503F17F55002405F5401522462B46FFF77FFBBDE8F08120462946BDE8F0810000000000002DE9F04F82460C469DB00023139218932B
:402F40004FF000084FF000091791179B1A780D2A05D8092A13D2002A00F0AD8112E02B2A04D02D2A04D0202A0CD108E0002200E001220C925A1C17925B782BB99BE10133C4
:402F80001793E2E700230C93179D2B78302B5CD16B78582B01D0782B4CD10C9BA84A019318AB009317A919AB504600F014FE10F00706044600F08585062E05D101350023B3
:402FC00017950C9300F07DBD189A3AB135211AA801F085FC1899504601F009F9062E22D8DFE806F0040D08181D0D04004FF00009C84618E0DDF86880DDF86C9013E01B9B2C
:40300000199A23F4801302F23342DDF8688043EA025908E0DFF82C924FF0000803E06FF000494FF0FF38210740F14B8549F0004900F047BD179B5A1C17925B78302BF9D059
:40304000002B00F03E85012300E000230593179B0A22069300239B4602930493179D2E78A6F13003D9B2092911D8BBF1080FD5BF0499029902FB013302FB013305F1010555
:40308000D4BF049302930BF1010B1795E6E7504601F074F80768504601F070F8006801F0D7FC394602462846FFF709FF074628B1002033465D46024601465AE0504601F06E
:4030C0005DF8006801F0C4FC179B1A1817921B5CBBF1000F45D15846302B05D1179B01305A1C17925B78F7E7A3F13102082A46D8179A0692024600200546303B00F101019A
:4031000029D00A44294605EB000C0A2661450FD0013101F1FF3EBEF1080F03DC049F77430497F3E71029DEBF029F77430297EDE72844082800F1010505DC04980A2101FB7B
:403140000033049306E0102DDFBF02980A2101FB003302930021179B581C17905B78084602E05D4638463A46A3F130010929C4D90121652B01D0452B4FD16DB904E0652B68
:4031800040F0AD840022012128B9059B002B00F09280054600E00025179C631C179363782B2B06D02D2B02D00026039606E0012300E000230393A31C1793A378A3F13006AF
:4031C000092E29D8302B04D1179B5E1C17965B78F8E7A3F13106082E1FD8A3F1300E179B1F46179B5E1C17965B78A3F1300CBCF1090F05D80A2606FB0E3EAEF1300EF0E7AC
:40320000F61B082E44F61F6602DC7645A8BF7646039F1FB1764201E017940026002D52D1002840F04E84059A002A40F04A84002941D14E2B20D007DC492B0AD03BE000BF00
:40324000C04D00000000F07F692B02D06E2B13D031E0AA4917A800F0EFFE60B3179BA849013B17A8179300F0E7FE10B9179B01331793DFF8A8921AE0A24917A800F0DCFE48
:40328000C8B1179B1B78282B0FD11AAA9E4917A800F0E5FE052808D11B9BDDF8688043F0FF4949F4E00900F00CBCDFF874924FF0000800F006BC139B1794002B00F00C8434
:4032C00000230C93FFE32C46BBF1000F08BFAB460498102DA8BF1024B71AFFF717FD092C8046894613DD894B03EBC40353E91223FFF794F9804602988946FFF707FD02464E
:403300000B4640464946FFF7C5FB804689460F2D33DC002F00F0D58322DD162F07DC7B4D424605EBC7014B46D1E9000113E0C5F125039F4221DC754CC5F10F0504EBC501B0
:403340007D1B4246D1E900014B4604EBC504FFF765F9D4E90023FFF761F980468946B0E317F1160F09DB694D4046A5EBC703D3E900234946FFF77CFAEFE72C1B3C44002C33
:403380005DDD14F00F010AD0604B424603EBC101D1E900014B46FFF741F98046894634F00F0400F0C180B4F59A7F0FDD4FF0000BCDF808B0CDF814B0CDF810B02223CAF8FF
:4033C0000030DFF858914FF0000889E14046494600234F4E24110293012C0CDDE20704D5D6E90023FFF71AF90123029A6410013202920836F0E70BB180468946444B029A3E
:40340000A9F1547903EBC201D1E9000142464B46FFF704F921F0004389460A461B0D3D491B058B428046C1D8A1F580118B4286BFDFF8F0904FF0FF3802F1547974E073D0E3
:40344000644214F00F020AD0304B404603EBC2034946D3E90023FFF70BFA80468946241162D01F2C08DD4FF0000BCDF808B0CDF814B0CDF810B02CE14046494614F0100F54
:403480000CBF00236A23244E03930023002C09DDE20704D5D6E90023FFF7C0F8012364100836F3E70BB180468946039BEBB1C9F30A53C3F16B03002B494616DD1F2B0EDDAA
:4034C000342BDEBF203B4FF0FF3202FA03F34FF00008CCBF4FF05C7903EA010905E04FF0FF3202FA03F303EA0808002200234046494601F015FB0028B5D117E0B44D0000F1
:40350000B74D0000BD4D0000A04D0000084E0000E04E00000000A07CD84D00000000F07F0000F8FFFFFFEF7F00230393049B5A46009306992B46504600F0ABFE0590002872
:403540003FF434AF002FC7F10003A8BF00230D934FF0000B27EAE7731293CDF808B0059B5046596800F00EFE049000283FF426AF059B0C301A6903F10C0102329200FFF777
:403580008BFC1AAB019319AB009342464B465046CDE9088901F02DF9189000283FF40EAF0121504600F000FF029000283FF406AF199B0399002BACBF0D9A129A1A9CACBF64
:4035C000D618D21AA3EB01032344B14903F1FF33ACBF129A0D9E8B42C4F1360480F28580C91A1F29C8BFAB4D4FF00107D4BF07FA01F3ED1AA4EB0104D9BF0793002507FA77
:4036000005F507973719039BBE4214441C443346A8BF3B46A342A8BF2346002BC2BFFF1AE41AF61A0D9B002B63D1002F7ADC129B002B40F08180002C00F38880002E00F386
:403640008F80049A1899504601F003F8834600283FF4B4AEC3680024C4600299069300F0DCFFA04280F28B80069B002B40F00282B8F1000F40F0FE81C9F31303002B40F0FF
:40368000F98129F000431B0D1B05B3F1D66F40F2F181DBF81430002B6CD059460122504600F06AFF0299834600F0B7FF002840F3E18129F00043039A1B0D1B05002A00F00E
:4036C0008D80B3F1D66F00F38980B3F15C7F00F3D38122234FF000084FF00009CAF80030059B002B40F0D981EBE101230025079388E71A460299504600F0F0FE02900028B0
:403700003FF45CAE0146189A504600F056FE069000283FF453AE1899504600F068FD069B189382E73A461899504600F025FF189000287FF47CAF41E6129A0499504600F0F7
:40374000CDFE049000287FF476AF37E622460499504600F011FF049000287FF46FAF2DE632460299504600F007FF029000287FF468AF23E6DBF81030012B8EDC7AE161D1F0
:40378000069AC9F3130322B343494A468B422ED1039B414663B1414B1340B3F1D46F07D81B0DC3F16B034FF0FF3000FA03F301E04FF0FF338B421AD139498A4202D10133F5
:4037C0003FF4FCAD354B4FF00008134003F5801950E163B9B8F1000F09D16AE7A3F580136FEA13594FF0FF386FEA095942E115B115EA090F02E0079B13EA080F00F03A81AE
:40380000069B039A4046494653B1FFF76DFB02460B46DDE90801FFF73DF98046894629E1FFF762FB02460B46DDE90801FFF730F9002200238046894601F072F900287FF4F5
:4038400048AF17E10299584601F021F800224FF0804306460F4601F077F900283FD0069B13B100260F4F10E0B8F1000F03D1C9F313033BB91AE0B8F1010F03D1B9F1000F4E
:403880003FF427AF084F00260024064D3CE000BF02FCFFFFE2FBFFFFFFFF0F000000F07FFFFFEF7F0000F03F0000F0BF00229A4B3046394601F03EF940B90022974B3046FC
:4038C0003946FEF7ABFE04460D4601E0069C934D05F1004314941593DDE9146714E08F4B002230463946FEF799FE069B04460D4623B901F100430E900F9303E002460B4665
:40390000CDE90E23DDE90E6729F000431B0D1B050793079A824B9A422BD1DDE90823A9F1547940464946CDE90A2300F0F1FE02460B4630463946FEF771FE42464B46FFF7B1
:40394000A9F821F000431B0D764A1B05934280460CD9754B0B9A9A4203D10A9B01333FF42DADDFF8C4914FF0FF3872E001F1547939E0039B3BB3079BB3F1D46F23D85EA3F2
:40398000D3E900232046294601F0DEF8B8B129462046FFF731FA002808BF0120FFF7B6F9069B04460D4623B901F100431090119303E002460B46CDE91023DDE91067079AA2
:4039C00007F1D6639F1ADDE9080100F0A1FE02460B4630463946FEF721FEDDE90823FFF759F880468946039B9BBB29F000431B0D079A1B059A424E462BD12946204601F0A5
:403A0000C1F8FFF793F90B46024629462046FFF73FF8069B04460D462BB9B8F1000F02D1C9F313067EB136A3D3E900232046294601F080F888BB34A3D3E90023204629463B
:403A400001F096F804E032A3D3E9002301F072F818BB1899504600F0CAFB0499504600F0C6FB0299504600F0C2FB5946504600F0BEFB74E5039B83B12C4B40460B9300237C
:403A80000A934946DDE90A23FEF7C8FD8046894619B910B92223CAF800301899504600F0A6FB0499504600F0A2FB0299504600F09EFB0599504600F09AFB5946504600F096
:403AC00096FB139B13B1179B139A13600C9B1BB1424609F1004307E042464B4604E000252A460121FFF747BB104619461DB0BDE8F08F00BFAFF300800000C0FFFFFFDF41C2
:403B00009535A094FFFFDF3F35E5AF350000E03F9535A094FFFFCF3F0000F03F0000E03F0000E07FFFFF9F7CFFFFEF7F00005039024B0A4601461868FFF7FAB97481FF1F69
:403B4000F0B506694B11B34200F1140527DA11F01F0105EB860605EB830201D1294616E0141D55F823202B46C1F1200ECA40B44209D2276807FA0EF73A4343F8042B54F8D7
:403B8000042BCA40F3E71A6052B1043308E0B2420B4605D252F8043B41F8043BF7E72B465B1B9B10036103B94361F0BDA0F13003092B01D820380AE0A0F16103052B01D847
:403BC000473804E0A0F14103052B02D82738C0B27047002070472DE9F04F8BB08A4690460693029000F0CAFA03684FF0000B1846039300F02DFF039B0190034413F8013C8C
:403C00000793DAF8003002331F4613F8010B302802D10BF1010BF7E7FFF7C8FF0446E0B9019A03993846FFF74AF9002834D1019BF85CFE18FFF7BAFF80B3334618781F4615
:403C4000302803F10103F9D0FFF7B0FFB0FA80F534466D094FF0010B01E000252C463A46164630780132FFF7A1FF0028F8D1019A03993046FFF723F950B954B9019BF418F9
:403C80002246164630780132FFF790FF0028F8D134B1A41BA40003E03E4600E0044601253378502B01D0702B2AD173782B2B08D02D2B03D0711C4FF0000905E04FF001091C
:403CC00001E04FF00009B11C0878FFF76FFF431EDBB2182B14D8A0F1100211F8010FFFF765FF431EDBB2182B04D80A2303FB0202103AF2E7B9F1000F00D05242144400E003
:403D00003146CAF800102DB1BBF1000F14BF002006207CE12946F31B013B072B02DD01315B10FAE7029800F02DFA4FF000090546CB46019B00F1140AC3F10103CDF810A0B6
:403D40000893B7422FD2731E0593079A16F8013C93420BD0BBF1200F16D1049BC3F8009004334FF000090493CB460DE0059B089A13449F42EED81846019A03990993FFF7C2
:403D80009EF8099B68B1E5E716F8010CFFF70EFF00F00F0000FA0BF0059B49EA00090BF1040B1E46CDE7049840F8049BCAEB0000801028614701484600F0A9FAD8F80060F9
:403DC000381AB04226DD871B3946284600F0A1FDC8B17B1E591103F01F024FF001095AF8211009FA02F20A420ED04B4502DC4FF0020909E0B91E284600F08BFD0028F6D096
:403E00004FF0030900E0814639462846FFF798FE3C440CE009DA371A29463A46029800F0ABFB0546E41B00F1140A4FF00009D8F808309C4208DD0298294600F0D8F9149A74
:403E400000231360A320E2E0D8F80400844253DA041BA6422EDCD8F80C30022B1AD0032B1CD0012B1DD1A6421BD1012E0BDCD8F80430069A6220136001232B61CAF80030D3
:403E8000149B1D60C3E0711E284600F042FD0028EDD106E0159B002BE9D002E0159B002BE5D10298294600F0A2F9149A002313605020ACE0671EB9F1000F06D13FB13946DC
:403EC000284600F026FD814601E04FF001097A11012307F01F0703FA07F75AF8223021461F42284618BF49F00209361BFFF728FE0227D8F8044000E00127B9F1000F00F039
:403F00008180D8F80C30022B0ED0032B10D0012B76D119F0020F73D0DAF8000049EA000919F0010F07D16BE0159BC3F101031593159B002B64D0D5F810A005F114034FEA5F
:403F40008A0903EB090100201A68B2F1FF3F02D001321A6020E043F8040B9942F4D8AB689A4512DB69680298013100F00BF983462A6905F10C01023292000C30FEF78CFF72
:403F80002946029800F033F95D462B695A1C2A6105EB830301225A61022F05F1140211D1D8F80030013B9E4227D17111012306F01F0603FA06F652F821301E420CBF022774
:403FC00001271AE02B699A450ADA01212846FFF7B7FDD8F8083001349C423FF72CAF0BE016F01F0608D0914459F8040C00F08FF9C6F12006B042E8DB012747F0200701E04D
:4040000047F010073846149B1D60069B1C600BB0BDE8F08FC2F10802920070B5C2F120064368056803FA06F42C43D340046040F8043F8842F4D370BD30B5036811F8014B6C
:4040400001334CB11A78A2F14105192D98BF2032A242F3D0002030BD0360012030BD0B682DE9F04F5E1102EB860613F01F0318BF0436351F174600228246A8462C469146D8
:4040800085B0D0F800B0019346F8042C00921BF8011F00293CD0084603920291FFF786FD039A00BB0299202916D8009B9945EEDD444505D2072A03DC41462046FFF7AAFFFE
:4040C000BC4223D90023A4F1040844F8043CCDF8009044461A46DAE7292948D10BF10103CAF8003014E00132082A09F1010906DDBC42CCD9002344F8043C0122043C2168BB
:4041000000F00F0040EA01102060C0E70822BEE7B9F1000F2BD0444505D2072A03DC41462046FFF777FFBC420CD93B4654F8042BA54243F8042BF9D2002243F8042B9D426C
:40414000FBD20BE0019B4BB1C3F120024FF0FF33D34056F8042C134046F8043C2B6843B9BD4202D101232B6003E0043DF6E7042000E0052005B0BDE8F08F00000048704734
:404180007881FF1F70B5456A04460E463DB9102000F066FC6062456085600560C560656AEB6843B1636ADB6853F8260078B1026843F8262017E021220421204600F0CBFB02
:4041C000636AE860DB68002BECD1002070BD012101FA06F56A1D9200204600F0BCFB0028F3D04660856000230361C36070BD70B5446A06460D463CB9102000F031FC706221
:40420000446084600460C4603DB1736A6A68DB6853F82210296043F8225070BD2DE9F04106460C460D691F4601F1140E0023DEF80000013381B202FB0171000C0F0C02FBE7
:40424000007089B201EB00419D424FEA10474EF8041BECDCD7B1A3689D4212DB616830460131FFF78FFF8046226904F10C01023292000C30FEF710FE21463046FFF7B7FF95
:40428000444604EB850301355F6125612046BDE8F0812DE9F843064615461F46092208330C4693FBF2F3002101229A4202DA52000131FAE73046FFF765FF089B092D4361CF
:4042C0004FF00103036111DD04F10908C1462C4419F8013B0146303B0A223046FFF79EFFA145F5D108EB0504083C01E00A3409252D1B63199F4208DD14F8013B0146303BBB
:404300000A223046FFF78AFFF3E7BDE8F883030C1B0413B90004102300E0002310F07F4F04BF0002083310F0704F04BF0001043310F0404F04BF80000233002803DB420057
:4043400003D5581C70471846704720207047036813F007020BD0D90722D49A074BBF5B089B08036003604CBF01200220704799B209B91B0C102213F0FF0F04BF1B0A0832F1
:40438000190704BF1B090432990704BF9B080232D90702D45B0805D00132036010467047002070472020704710B50C460121FFF7E9FE01224461026110BD2DE9F74F144663
:4043C0000A69236988469A42BEBF0B46A0461C46D8F81070D4F81090D8F80830D8F8041007EB09069E42C8BF0131FFF7CBFE00F114052B4605EB860C0022634502D243F827
:40440000042BFAE704F1140208F1140102EB890301EB87070093009B0192934257D9B2F800B0BBF1000F23D08946AE464FF0000859F8044BBEF800A0A3B20BFB03A34FEA58
:40444000144ADEF8004043444FEA14480BFB0A84F24604EB13449BB243EA04434F454FEA14484AF8043B01D9D646E1E7CEF80480019B0432B3F802A0BAF1000F21D02C46EB
:4044800089462B684FF00008B9F800E0B4F802B09BB20AFB0EBEA346F04443EA08434BF8043B59F8043BB4F804E01B0C0AFB03E34F4503EB18434FEA134801D95C46E3E746
:4044C00063600435A7E75CF8043D13B9013E002EF9DC066103B0BDE8F08F00002DE9F843154612F0030206460F4607D0214C013A002354F82220FFF791FE0746AD1036D038
:40450000746A3CB9102000F0ABFA7062446084600460C460D6F82480D8F808404CB940F271213046FFF740FF04460023C8F8080003604FF00008EB070AD5394622463046F6
:40454000FFF73BFF814639463046FFF750FE4F466D100CD0206808B10446ECE7224621463046FFF72AFF2060C0F80080F4E73846BDE8F883D04E00002DE9F0470C46074620
:40458000914626694FEA621A56444968A368751CAB4202DA01315B00FAE73846FFF7F2FD002380461A4600F11401534503DA41F823200133F9E72AEAEA73206901EB83039F
:4045C00019F01F0904F1140101EB800E14D0C9F1200C002208689A4600FA09F0024343F8042B51F8042B8E4522FA0CF2F2D8CAF8042042B1B51C06E0043B51F8042B8E45DF
:4046000043F8042FF9D8013D3846C8F810502146FFF7EDFD4046BDE8F08703690A6910B59B1A11D192001430143183180A4453F8044D52F8041D8C4202D007D3012010BDC8
:404640009842F4D3002010BD184610BD4FF0FF3010BD2DE9F8430C460746114620461546FFF7DBFF061E08D131463846FFF78AFD012303614661BDE8F883BCBF23462C465A
:4046800038466168BABF1D4601260026FFF77AFD2B69C660266905F1140904F1140101EB860709EB830800F114054FF0000C51F8042B59F8044B93B29C44A3B2240CC3EBFA
:4046C0000C03C4EB124202EB23429BB24FEA224CC84543EA02428E4645F8042BE7D8BE450ED25EF8041B8AB26244131403EB114392B242EA03424FEA234C45F8042BEEE7A4
:4047000055F8043D0BB9013EFAE70661BDE8F883104B0B40A3F15073002B02DD0020194670475B421B15132B4FF000004FF0000104DC4FF4002242FA03F17047143B1E2BF5
:404740004FF00102CEBF1346C3F11F0302FA03F3184670470000F07FF8B5056900F1140606EB850555F8044C2F1F2046FFF7CFFDC0F120030A280B6014DCC0F10B0E24FAC8
:404780000EF1BE4241F07F5334BF55F8081C0021153004FA00F021FA0EF143F4401340EA010223E0BE423ABFA5F1080755F8081C00210B3815D08440C0F1200544F07F5472
:4047C00044F44014B74221FA05FE44EA0E038CBF57F8044C002401FA00F0EC4040EA040204E00A4644F07F5343F4401310461946F8BD2DE9F3411C4601219046089E099D64
:40480000FFF7C0FCC4F31302C4F30A5407460CB142F480120192B8F1000F19D002A840F8088DFFF794FD009B48B1019AC0F1200102FA01F10B43C2407B61019200E07B6177
:40484000019B002B14BF02210121BB61396107E001A8FFF77CFD019B01217B613961203034B1A4F2334404443460C0F1350009E0A0F2324007EB810330601869FFF747FDBE
:40488000C0EB41102860384602B0BDE8F0812DE9F743884669468146FFF75EFF0D46044601A94046FFF758FF0F460646D9F81030D8F8102020469A1A9DE80A00C91A01EB03
:4048C0004213002BCCBF05EB0355A7EB035732463B462946FDF7CCFF03B0BDE8F083013910B549111469013102F1140300EB810103EB8404A342024604D253F8042B40F8DD
:40490000042BF7E700238A4202D242F8043BFAE710BD00F1140200694B11984210B50CDB0CDD11F01F0109D052F8234024FA01F000FA01F18C420CD100E0034602EB83035C
:40494000934204D953F8041D0029F9D001E0002010BD012010BD38B502FB01F4214600F009F8054618B122460021FEF7A0FA284638BD000070B5CD1C25F0030508350C2D04
:4049800038BF0C25002D064601DBA94202D90C23336046E000F06CF8234B1C681A462146A1B10B685B1B0ED40B2B03D90B60CC18CD501EE08C420BBF63684B6813606360DA
:4049C00018BF0C4615E00C464968E9E7174C23681BB9304600F02CF820602946304600F027F8431C18D0C41C24F00304A0420DD12560304600F03DF804F10B00231D20F094
:404A00000700C31A0ED05A42E25070BD211A304600F00EF80130EBD10C233360304600F028F8002070BD00BF0482FF1F0082FF1F38B5064C0023054608462360FBF776FDAA
:404A4000431C02D1236803B12B6038BD408DFF1F034613F8012B002AFBD1181A01387047024B01461868FFF785BF00BF7481FF1F704770474FF0FF3C06E000BF4FF0010CC9
:404A800002E000BF4FF0010C4DF804CD4FEA410C7FEA6C5C4FEA430C18BF7FEA6C5C1BD001B050EA410C0CBF52EA430C91EA030F02BF90EA020F0020704710F1000F91EAF8
:404AC000030F58BF994208BF90422CBFD8176FEAE37040F0010070474FEA410C7FEA6C5C02D150EA013C07D14FEA430C7FEA6C5CD6D152EA033CD3D05DF8040B704700BF7A
:404B00008446104662468C461946634600E000BF01B5FFF7B7FF002848BF10F1000F01BD4DF808EDFFF7F4FF0CBF012000205DF808FB00BF4DF808EDFFF7EAFF34BF012062
:404B400000205DF808FB00BF4DF808EDFFF7E0FF94BF012000205DF808FB00BF4DF808EDFFF7CEFF94BF012000205DF808FB00BF4DF808EDFFF7C4FF34BF012000205DF820
:404B800008FB00BF4FEA410212F5001215D211D56FF47873B3EB625212D94FEAC12343F0004343EA505311F0004F23FA02F018BF404270474FF00000704750EA013005D13D
:404BC00011F0004008BF6FF0004070474FF00000704700BF000000004552524F520000005345545F463D0000405100403000C051004010000000014000100014014000083A
:404C000000400140000A004C01400002005001402000000030313233343536373839414243444546000000001121314151715363730000000809010105020704040000004F
:404C400001000000484C0000010000008C4D0000000000000000000001000000604C000001000000484D0000030000008C4C000000000000000000000000000000000000A7
:404C800000000000884C0000020A000000008103080002000100820240000A000100030240000A0002030000040309042C03430079007000720065007300730020005300C3
:404CC00065006D00690063006F006E0064007500630074006F007200100355005300420055004100520054003803430044004300200043006F006D006D0075006E00690072
:404D000063006100740069006F006E00200049006E007400650072006600610063006500260343004400430020004400610074006100200049006E0074006500720066002F
:404D40006100630065000000090243000201018032090400000102020103052400100104240202052406000105240100010705810308000A09040100020A000004070582E1
:404D80000240000007050302400000001201000202000008B40432F2010001028001430034000000CEFBFFFFCB03000001000000000000006E6600696E69747900616E0003
:404DC00035000000CEFBFFFFCB030000010000000000000000000000BC89D897B2D29C3C33A7A8D523F649393DA7F444FD0FA5329D978CCF08BA5B25436FAC6428066811AD
:404E0000504F534958002E00000000000000F03F000000000000244000000000000059400000000000408F40000000000088C34000000000006AF8400000000080842E41D6
:404E400000000000D01263410000000084D797410000000065CDCD41000000205FA00242000000E876483742000000A2941A6D42000040E59C30A2420000901EC4BCD6429D
:404E800000003426F56B0C430080E03779C3414300A0D8855734764300C84E676DC1AB43003D9160E458E143408CB5781DAF154450EFE2D6E41A4B4492D54D06CFF080444B
:404EC000F64AE1C7022DB544B49DD9794378EA4405000000190000007D000000000000000080E03779C34143176E05B5B5B89346F5F93FE9034F384D321D30F94877825A9F
:404F00003CBF737FDD4F1575F8B500BFF8BC08BC9E4670474D000000A9050000F8B500BFF8BC08BC9E46704729000000404F0000C880FF1FE8000000980B0000000000002C
:404F40000000000000000000000000A0F7C6A041488DFF1F7F800000070000000000C05D80BB000030000000006CDC0200C2010000000800C201000000080000A1200000D1
:404F8000000002000000FFFFFF00000000000000000000000000000000000000000000000000000000000000000000009E4D00000000000000000000000000000000000007
:404FC00000000000000000000000000000000000000000000000000000000000000000000000000000000000000000001481FF1F064E0000074E0000074E0000074E0000AB
:40500000074E0000074E0000074E0000074E0000074E0000074E0000FFFFFFFFFFFFFFFFFFFFFFFFFFFF000000000000000000000000000000000000000000000000000080
:405040000000000000000000000000000000000000000000000000000000000000000000000000000000000000000000000000000000000000000000000000000000000030
:4050800000000000000000000000000000000000000000000000000000000000000000000000000000000000000000000000000000000000000000000000000000000000F0
:4050C00000000000000000000000000000000000000000000000000000000000000000000000000000000000000000000000000000000000000000000000000000000000B0
:40510000000000000000000000000000000000000000000000000000000000000000000000000000000000000000000000000000000000000000000000000000000000006F
:020000040003F7
:0200000480007A
:4000000001450040045200400264004004650040010101400203014002070140240801402E0901403A0A0140140B01403A0C0140160D0140390E0140130F01403614014057
:400040000D1501401F160140181701405C1801403A1901403E1A01403A1B0140094001400A41014003420140084301400144014008450140084601400E47014003480140D2
:40008000054C0140074D014008500140025101407E020101101011587C408C018F0179028601887F8A01E208E202E602E604EE040B0113021A022201230428022F043202CA
:4000C00033023401350437013E043F10580459085B045C985F21850287048C019505970299079E03B002B101B301B506B601BE40D804D904DC89DF310040082009400B047B
:400100000E081480171018401A011B401D18200422042384254026242C402E8031103204370138043E105C205F806E106F017A807E207F0181109B10A040A508A614B04024
:40014000B110C001C241C450CA90CC86CE22D630DE51EE0440304104440247B0482049FF4AFF4BFF4CEF4D554E704F48501C5A045D095F0161086308650867086850690A51
:400180006A406BA86CC06E406FA89701B301C030C104C405C9FFCAFFCBFFCCEFCD55CE72CF48D01CD201D904DA04DB04DC90DD99DF01E108E308E508E708E850E90AEA4018
:4001C000EBA8ECC0EE40EFA82710360441184301450847014F8051026F0186109F01A040A340A50AB508B780CC40D0C7D210E408403041044405450D460E47CF483549FF3A
:400200004AFF4BFF4CEA4D554EF24F48501C54015A045B045D995F0161086308650867086850690A6A406BA86CC06E406FA8C030C105C404C5B0C802C9FFCAFFCBFFCCEF4C
:40024000CD55CE70CF48D01CDA04DD09DF01E108E308E508E708E850E90AEA40EBA8ECC0EE40EFA8060207023C803F80410A4508470148424F84564A5F82664867049F80EC
:40028000A002A50AD0C3D218D690D870E202E60240304105440449FF4AFF4BFF4CEF4D554E724F48501C5A045D095F0161086308650867086850690A6A406BA86CC06E40E7
:4002C0006FA8C030C105C404C5EDC60CC70FC817C9FFCAFFCBFFCCEACD55CEF2CF48D01CD201D401DA04DB04DD99DF01E108E308E508E708E850E90AEA40EBA8ECC0EE400D
:40030000EFA829022B80410A450A48024C024F05560857805D025F80660867056C02D0C3D218D690D870E208402041054403470B481049FF4AFF4BFF4CEF4D554E704F4856
:40034000501C52015A045B045D995F0161086308650867086850690A6A406BA86CC06E406FA8C020C104C403C9FFCAFFCBFFCCEFCD55CE72CF48D01CDA04DD09DF01E108AE
:40038000E308E508E708E850E90AEA40EBA8ECC0EE40EFA84128452847024801500868016B0284089F02A128D0E6D208E002402041044405450D460E47CF483549FF4AFF67
:4003C0004BFF4CEA4D554EF24F48501C54015A045B045D995F0161086308650867086850690A6A406BA86CC06E406FA8452047024E024F04564857025E42664867047A012B
:400400007B02810882029240A120AA40AD20D0A0D210D690D870E201E880EA0D00010401070108010E01120214021A021E012001240128012C023202360137013E404050CD
:400440004104440345B0480249FF4AFF4BFF4CEF4D554E704F48501C5602580459045A045B245C805D995F3161086308650867086850690A6A406BA86CC06E406FA88702D6
:40048000970198059A0A9C0FA403A60CA803AA0CAC05AE0AB102B301B60FBE40C010C104C403C9FFCAFFCBFFCCEFCD55CE72CF48D01CD804D904DA04DB04DD09DF01E1086F
:4004C000E308E508E708E850E90AEA40EBA8ECC0EE40EFA8075509400A080C400D040F44100A130417AA18021C201F402104234025402680320438043D0841024261450653
:4005000046204F8166806702680A6F557680772A7F4083018410900492099304970298409B809C809E80A040A340A690AB40AE01B040C0F0C2F3C4F7CC02CE42D0CBD21008
:40054000DE80E008E880EA01060107010D0117011A01250126012E013101320140104104440345C046DE470F481E49FF4AFF4BFF4CEA4D554EF24F48501C520154015804F6
:4005800059045A045B045D995F0161086308650867086850690A6A406BA86CC06E406FA88401850987168D058F1A90019D0E9F11A401AC01B201B31DB703BB80D804D924C8
:4005C000DC90DF010004010804040A080F40110413401508178018201E2020402410250426802908320434803680390C3B403C803F0440104241434049015188521059017F
:400600005B40618862106A40804087048C10900491089209934096409B809C80A040A504A610B401C024C212C4A5CA02CC12CE5AD00BD609D80EE404320233203402372008
:400640003A208620CCF0CE10E2105301840286029C029F20A602A720D480E240E64097029F20A7202280830197029F20AB20C810E620EE2087025844600465088488A70225
:40068000D401D602D8031B04844094049CC49D08A408A702C608030208800A100C08404094049C849D08A408A702AB04C002C20ED002AB20B280EA80840494449C049D0803
:4006C000AA1081088C0494049D08B440E402E80201010D010F01100111011B011C011D0100AB010200010100010082004000000000000000C0000000000B0B0000008000C3
:40070000000000000078780000000000000080001D001801000000000000000000000000000000000000000000000000000000000000000000000000000000000000000013
:400740000000000000000000000000000000000000000000000000000000000000000000000000000000000000000000000000000000000000000000000000000000000079
:400780000000000000000000000000000000000000000000000000000000000000000000000000000000000000000000000000000000000000000000000000000000000039
:4007C00000000000000000000000000000000000000000000000000000000000000000000000000000000000000000000000000000000000000000000000000000000000F9
:4008000000000000000000000000000000000000000000000000000000000000000000000000000000000000000000000000000000000000000000000000000000000000B8
:0200000490006A
:0400000000004005B7
:0200000490105A
:04000000BC90ACAF55
:0200000490303A
:02000000EA5ABA
:0200000490402A
:4000000000000000000000000000000000000000000000000000000000000000000000000000000000000000000000000000000000000000000000000000000000000000C0
:400040000000000000000000000000000000000000000000000000000000000000000000000000000000000000000000000000000000000000000000000000000000000080
:400080000000000000000000000000000000000000000000000000000000000000000000000000000000000000000000000000000000000000000000000000000000000040
:4000C0000000000000000000000000000000000000000000000000000000000000000000000000000000000000000000000000000000000000000000000000000000000000
:0200000490501A
:0C00000000012E16106900012E36FAC314
:00000001FF